{"contracts/TapGem.sol":{"TapGem":{"abi":[{"anonymous":false,"inputs":[{"indexed":true,"internalType":"address","name":"previousOwner","type":"address"},{"indexed":true,"internalType":"address","name":"newOwner","type":"address"}],"name":"OwnershipTransferred","type":"event"},{"anonymous":false,"inputs":[{"indexed":true,"internalType":"address","name":"user","type":"address"},{"indexed":false,"internalType":"uint256","name":"amount","type":"uint256"},{"indexed":false,"internalType":"uint256","name":"timestamp","type":"uint256"}],"name":"RewardClaimed","type":"event"},{"anonymous":false,"inputs":[{"indexed":true,"internalType":"address","name":"user","type":"address"},{"indexed":false,"internalType":"uint256","name":"timestamp","type":"uint256"}],"name":"Tapped","type":"event"},{"inputs":[],"name":"MAX_TAPS_PER_DAY","outputs":[{"internalType":"uint256","name":"","type":"uint256"}],"stateMutability":"view","type":"function"},{"inputs":[],"name":"MONTHLY_REWARD_CAP","outputs":[{"internalType":"uint256","name":"","type":"uint256"}],"stateMutability":"view","type":"function"},{"inputs":[],"name":"SECONDS_IN_DAY","outputs":[{"internalType":"uint256","name":"","type":"uint256"}],"stateMutability":"view","type":"function"},{"inputs":[],"name":"claimRewards","outputs":[],"stateMutability":"nonpayable","type":"function"},{"inputs":[{"internalType":"address","name":"userAddr","type":"address"}],"name":"getUserStats","outputs":[{"internalType":"uint256","name":"tapsToday","type":"uint256"},{"internalType":"uint256","name":"currentStreak","type":"uint256"},{"internalType":"uint256","name":"points","type":"uint256"},{"internalType":"uint256","name":"totalRewardClaimed","type":"uint256"}],"stateMutability":"view","type":"function"},{"inputs":[],"name":"owner","outputs":[{"internalType":"address","name":"","type":"address"}],"stateMutability":"view","type":"function"},{"inputs":[],"name":"renounceOwnership","outputs":[],"stateMutability":"nonpayable","type":"function"},{"inputs":[],"name":"tap","outputs":[],"stateMutability":"nonpayable","type":"function"},{"inputs":[{"internalType":"address","name":"newOwner","type":"address"}],"name":"transferOwnership","outputs":[],"stateMutability":"nonpayable","type":"function"},{"inputs":[{"internalType":"uint256","name":"amount","type":"uint256"}],"name":"withdraw","outputs":[],"stateMutability":"nonpayable","type":"function"},{"stateMutability":"payable","type":"receive"}],"evm":{"bytecode":{"linkReferences":{},"object":"608060405234801561001057600080fd5b5061002d61002261003260201b60201c565b61003a60201b60201c565b6100fe565b600033905090565b60008060009054906101000a900473ffffffffffffffffffffffffffffffffffffffff169050816000806101000a81548173ffffffffffffffffffffffffffffffffffffffff021916908373ffffffffffffffffffffffffffffffffffffffff1602179055508173ffffffffffffffffffffffffffffffffffffffff168173ffffffffffffffffffffffffffffffffffffffff167f8be0079c531659141344cd1fd0a4f28419497f9722a3daafe3b4186f6b6457e060405160405180910390a35050565b6112d98061010d6000396000f3fe6080604052600436106100955760003560e01c8063715018a611610059578063715018a6146101775780638da5cb5b1461018e578063c79198e1146101b9578063f2fde38b146101e4578063fd2210311461020d5761009c565b80632e1a7d4d146100a1578063372500ab146100ca5780634e43603a146100e157806360c379dd1461012157806361a52a361461014c5761009c565b3661009c57005b600080fd5b3480156100ad57600080fd5b506100c860048036038101906100c39190610bc7565b610224565b005b3480156100d657600080fd5b506100df6102b9565b005b3480156100ed57600080fd5b5061010860048036038101906101039190610c52565b610588565b6040516101189493929190610c8e565b60405180910390f35b34801561012d57600080fd5b50610136610615565b6040516101439190610cd3565b60405180910390f35b34801561015857600080fd5b5061016161061a565b60405161016e9190610cd3565b60405180910390f35b34801561018357600080fd5b5061018c610621565b005b34801561019a57600080fd5b506101a3610635565b6040516101b09190610cfd565b60405180910390f35b3480156101c557600080fd5b506101ce61065e565b6040516101db9190610cd3565b60405180910390f35b3480156101f057600080fd5b5061020b60048036038101906102069190610c52565b61066a565b005b34801561021957600080fd5b506102226106ed565b005b61022c610932565b4781111561026f576040517f08c379a000000000000000000000000000000000000000000000000000000000815260040161026690610d75565b60405180910390fd5b3373ffffffffffffffffffffffffffffffffffffffff166108fc829081150290604051600060405180830381858888f193505050501580156102b5573d6000803e3d6000fd5b5050565b3273ffffffffffffffffffffffffffffffffffffffff163373ffffffffffffffffffffffffffffffffffffffff1614610327576040517f08c379a000000000000000000000000000000000000000000000000000000000815260040161031e90610de1565b60405180910390fd5b6000600160003373ffffffffffffffffffffffffffffffffffffffff1673ffffffffffffffffffffffffffffffffffffffff168152602001908152602001600020905060006103746109b0565b9050600061038583600201546109d2565b9050600081116103ca576040517f08c379a00000000000000000000000000000000000000000000000000000000081526004016103c190610e4d565b60405180910390fd5b81836006015410610410576040517f08c379a000000000000000000000000000000000000000000000000000000000815260040161040790610edf565b60405180910390fd5b67d02ab486cedc00008184600501546104299190610f2e565b111561046a576040517f08c379a000000000000000000000000000000000000000000000000000000000815260040161046190610fae565b60405180910390fd5b804710156104ad576040517f08c379a00000000000000000000000000000000000000000000000000000000081526004016104a49061101a565b60405180910390fd5b808360050160008282546104c19190610f2e565b92505081905550818360060181905550808360070160008282546104e59190610f2e565b925050819055503373ffffffffffffffffffffffffffffffffffffffff166108fc829081150290604051600060405180830381858888f19350505050158015610532573d6000803e3d6000fd5b503373ffffffffffffffffffffffffffffffffffffffff167ff01da32686223933d8a18a391060918c7f11a3648639edd87ae013e2e2731743824260405161057b92919061103a565b60405180910390a2505050565b6000806000806000600160008773ffffffffffffffffffffffffffffffffffffffff1673ffffffffffffffffffffffffffffffffffffffff168152602001908152602001600020905060006105db610aaa565b9050808260000154146105ef5760006105f5565b81600101545b955081600201549450816004015493508160070154925050509193509193565b601481565b6201518081565b610629610932565b6106336000610ac0565b565b60008060009054906101000a900473ffffffffffffffffffffffffffffffffffffffff16905090565b67d02ab486cedc000081565b610672610932565b600073ffffffffffffffffffffffffffffffffffffffff168173ffffffffffffffffffffffffffffffffffffffff16036106e1576040517f08c379a00000000000000000000000000000000000000000000000000000000081526004016106d8906110d5565b60405180910390fd5b6106ea81610ac0565b50565b3273ffffffffffffffffffffffffffffffffffffffff163373ffffffffffffffffffffffffffffffffffffffff161461075b576040517f08c379a000000000000000000000000000000000000000000000000000000000815260040161075290610de1565b60405180910390fd5b6000600160003373ffffffffffffffffffffffffffffffffffffffff1673ffffffffffffffffffffffffffffffffffffffff168152602001908152602001600020905060006107a8610aaa565b9050808260000154101561080657600082600101819055506001816107cd91906110f5565b826000015414806107ed57506002816107e691906110f5565b8260000154145b6107fc57600082600201819055505b8082600001819055505b601482600101541061084d576040517f08c379a000000000000000000000000000000000000000000000000000000000815260040161084490611175565b60405180910390fd5b60018260010160008282546108629190610f2e565b9250508190555042826003018190555060018260040160008282546108879190610f2e565b9250508190555060148260010154036108b757600a8260040160008282546108af9190610f2e565b925050819055505b60018260010154036108e05760018260020160008282546108d89190610f2e565b925050819055505b3373ffffffffffffffffffffffffffffffffffffffff167fdc127be18d76e446e5fc020307f45258733b6de74a0e446901771cbc729c1924426040516109269190610cd3565b60405180910390a25050565b61093a610b84565b73ffffffffffffffffffffffffffffffffffffffff16610958610635565b73ffffffffffffffffffffffffffffffffffffffff16146109ae576040517f08c379a00000000000000000000000000000000000000000000000000000000081526004016109a5906111e1565b60405180910390fd5b565b6000601e620151806109c29190611201565b426109cd9190611272565b905090565b600060328210610a28576000600a6014846109ed91906110f5565b6109f79190611272565b9050671bc16d674ec8000081610a0d9190611201565b6753444835ec580000610a209190610f2e565b915050610aa5565b601e8210610a4057676f05b59d3b2000009050610aa5565b60148210610a58576753444835ec5800009050610aa5565b600a8210610a70576729a2241af62c00009050610aa5565b60058210610a88576714d1120d7b1600009050610aa5565b60018210610aa057670429d069189e00009050610aa5565b600090505b919050565b60006201518042610abb9190611272565b905090565b60008060009054906101000a900473ffffffffffffffffffffffffffffffffffffffff169050816000806101000a81548173ffffffffffffffffffffffffffffffffffffffff021916908373ffffffffffffffffffffffffffffffffffffffff1602179055508173ffffffffffffffffffffffffffffffffffffffff168173ffffffffffffffffffffffffffffffffffffffff167f8be0079c531659141344cd1fd0a4f28419497f9722a3daafe3b4186f6b6457e060405160405180910390a35050565b600033905090565b600080fd5b6000819050919050565b610ba481610b91565b8114610baf57600080fd5b50565b600081359050610bc181610b9b565b92915050565b600060208284031215610bdd57610bdc610b8c565b5b6000610beb84828501610bb2565b91505092915050565b600073ffffffffffffffffffffffffffffffffffffffff82169050919050565b6000610c1f82610bf4565b9050919050565b610c2f81610c14565b8114610c3a57600080fd5b50565b600081359050610c4c81610c26565b92915050565b600060208284031215610c6857610c67610b8c565b5b6000610c7684828501610c3d565b91505092915050565b610c8881610b91565b82525050565b6000608082019050610ca36000830187610c7f565b610cb06020830186610c7f565b610cbd6040830185610c7f565b610cca6060830184610c7f565b95945050505050565b6000602082019050610ce86000830184610c7f565b92915050565b610cf781610c14565b82525050565b6000602082019050610d126000830184610cee565b92915050565b600082825260208201905092915050565b7f496e73756666696369656e742062616c616e6365000000000000000000000000600082015250565b6000610d5f601483610d18565b9150610d6a82610d29565b602082019050919050565b60006020820190508181036000830152610d8e81610d52565b9050919050565b7f4f6e6c7920454f4120616c6c6f77656400000000000000000000000000000000600082015250565b6000610dcb601083610d18565b9150610dd682610d95565b602082019050919050565b60006020820190508181036000830152610dfa81610dbe565b9050919050565b7f4e6f207265776172647320617661696c61626c65000000000000000000000000600082015250565b6000610e37601483610d18565b9150610e4282610e01565b602082019050919050565b60006020820190508181036000830152610e6681610e2a565b9050919050565b7f52657761726420616c726561647920636c61696d65642074686973206d6f6e7460008201527f6800000000000000000000000000000000000000000000000000000000000000602082015250565b6000610ec9602183610d18565b9150610ed482610e6d565b604082019050919050565b60006020820190508181036000830152610ef881610ebc565b9050919050565b7f4e487b7100000000000000000000000000000000000000000000000000000000600052601160045260246000fd5b6000610f3982610b91565b9150610f4483610b91565b9250828201905080821115610f5c57610f5b610eff565b5b92915050565b7f4d6f6e74686c7920726577617264206361702065786365656465640000000000600082015250565b6000610f98601b83610d18565b9150610fa382610f62565b602082019050919050565b60006020820190508181036000830152610fc781610f8b565b9050919050565b7f496e73756666696369656e7420636f6e74726163742062616c616e6365000000600082015250565b6000611004601d83610d18565b915061100f82610fce565b602082019050919050565b6000602082019050818103600083015261103381610ff7565b9050919050565b600060408201905061104f6000830185610c7f565b61105c6020830184610c7f565b9392505050565b7f4f776e61626c653a206e6577206f776e657220697320746865207a65726f206160008201527f6464726573730000000000000000000000000000000000000000000000000000602082015250565b60006110bf602683610d18565b91506110ca82611063565b604082019050919050565b600060208201905081810360008301526110ee816110b2565b9050919050565b600061110082610b91565b915061110b83610b91565b925082820390508181111561112357611122610eff565b5b92915050565b7f4d61782074617073207265616368656420746f64617900000000000000000000600082015250565b600061115f601683610d18565b915061116a82611129565b602082019050919050565b6000602082019050818103600083015261118e81611152565b9050919050565b7f4f776e61626c653a2063616c6c6572206973206e6f7420746865206f776e6572600082015250565b60006111cb602083610d18565b91506111d682611195565b602082019050919050565b600060208201905081810360008301526111fa816111be565b9050919050565b600061120c82610b91565b915061121783610b91565b925082820261122581610b91565b9150828204841483151761123c5761123b610eff565b5b5092915050565b7f4e487b7100000000000000000000000000000000000000000000000000000000600052601260045260246000fd5b600061127d82610b91565b915061128883610b91565b92508261129857611297611243565b5b82820490509291505056fea2646970667358221220574fea8d19515e8cbd2be2bb33c47a2acfe2fd8c6ec21f93c9684d810340847064736f6c634300081c0033","opcodes":"PUSH1 0x80 PUSH1 0x40 MSTORE CALLVALUE DUP1 ISZERO PUSH2 0x10 JUMPI PUSH1 0x0 DUP1 REVERT JUMPDEST POP PUSH2 0x2D PUSH2 0x22 PUSH2 0x32 PUSH1 0x20 SHL PUSH1 0x20 SHR JUMP JUMPDEST PUSH2 0x3A PUSH1 0x20 SHL PUSH1 0x20 SHR JUMP JUMPDEST PUSH2 0xFE JUMP JUMPDEST PUSH1 0x0 CALLER SWAP1 POP SWAP1 JUMP JUMPDEST PUSH1 0x0 DUP1 PUSH1 0x0 SWAP1 SLOAD SWAP1 PUSH2 0x100 EXP SWAP1 DIV PUSH20 0xFFFFFFFFFFFFFFFFFFFFFFFFFFFFFFFFFFFFFFFF AND SWAP1 POP DUP2 PUSH1 0x0 DUP1 PUSH2 0x100 EXP DUP2 SLOAD DUP2 PUSH20 0xFFFFFFFFFFFFFFFFFFFFFFFFFFFFFFFFFFFFFFFF MUL NOT AND SWAP1 DUP4 PUSH20 0xFFFFFFFFFFFFFFFFFFFFFFFFFFFFFFFFFFFFFFFF AND MUL OR SWAP1 SSTORE POP DUP2 PUSH20 0xFFFFFFFFFFFFFFFFFFFFFFFFFFFFFFFFFFFFFFFF AND DUP2 PUSH20 0xFFFFFFFFFFFFFFFFFFFFFFFFFFFFFFFFFFFFFFFF AND PUSH32 0x8BE0079C531659141344CD1FD0A4F28419497F9722A3DAAFE3B4186F6B6457E0 PUSH1 0x40 MLOAD PUSH1 0x40 MLOAD DUP1 SWAP2 SUB SWAP1 LOG3 POP POP JUMP JUMPDEST PUSH2 0x12D9 DUP1 PUSH2 0x10D PUSH1 0x0 CODECOPY PUSH1 0x0 RETURN INVALID PUSH1 0x80 PUSH1 0x40 MSTORE PUSH1 0x4 CALLDATASIZE LT PUSH2 0x95 JUMPI PUSH1 0x0 CALLDATALOAD PUSH1 0xE0 SHR DUP1 PUSH4 0x715018A6 GT PUSH2 0x59 JUMPI DUP1 PUSH4 0x715018A6 EQ PUSH2 0x177 JUMPI DUP1 PUSH4 0x8DA5CB5B EQ PUSH2 0x18E JUMPI DUP1 PUSH4 0xC79198E1 EQ PUSH2 0x1B9 JUMPI DUP1 PUSH4 0xF2FDE38B EQ PUSH2 0x1E4 JUMPI DUP1 PUSH4 0xFD221031 EQ PUSH2 0x20D JUMPI PUSH2 0x9C JUMP JUMPDEST DUP1 PUSH4 0x2E1A7D4D EQ PUSH2 0xA1 JUMPI DUP1 PUSH4 0x372500AB EQ PUSH2 0xCA JUMPI DUP1 PUSH4 0x4E43603A EQ PUSH2 0xE1 JUMPI DUP1 PUSH4 0x60C379DD EQ PUSH2 0x121 JUMPI DUP1 PUSH4 0x61A52A36 EQ PUSH2 0x14C JUMPI PUSH2 0x9C JUMP JUMPDEST CALLDATASIZE PUSH2 0x9C JUMPI STOP JUMPDEST PUSH1 0x0 DUP1 REVERT JUMPDEST CALLVALUE DUP1 ISZERO PUSH2 0xAD JUMPI PUSH1 0x0 DUP1 REVERT JUMPDEST POP PUSH2 0xC8 PUSH1 0x4 DUP1 CALLDATASIZE SUB DUP2 ADD SWAP1 PUSH2 0xC3 SWAP2 SWAP1 PUSH2 0xBC7 JUMP JUMPDEST PUSH2 0x224 JUMP JUMPDEST STOP JUMPDEST CALLVALUE DUP1 ISZERO PUSH2 0xD6 JUMPI PUSH1 0x0 DUP1 REVERT JUMPDEST POP PUSH2 0xDF PUSH2 0x2B9 JUMP JUMPDEST STOP JUMPDEST CALLVALUE DUP1 ISZERO PUSH2 0xED JUMPI PUSH1 0x0 DUP1 REVERT JUMPDEST POP PUSH2 0x108 PUSH1 0x4 DUP1 CALLDATASIZE SUB DUP2 ADD SWAP1 PUSH2 0x103 SWAP2 SWAP1 PUSH2 0xC52 JUMP JUMPDEST PUSH2 0x588 JUMP JUMPDEST PUSH1 0x40 MLOAD PUSH2 0x118 SWAP5 SWAP4 SWAP3 SWAP2 SWAP1 PUSH2 0xC8E JUMP JUMPDEST PUSH1 0x40 MLOAD DUP1 SWAP2 SUB SWAP1 RETURN JUMPDEST CALLVALUE DUP1 ISZERO PUSH2 0x12D JUMPI PUSH1 0x0 DUP1 REVERT JUMPDEST POP PUSH2 0x136 PUSH2 0x615 JUMP JUMPDEST PUSH1 0x40 MLOAD PUSH2 0x143 SWAP2 SWAP1 PUSH2 0xCD3 JUMP JUMPDEST PUSH1 0x40 MLOAD DUP1 SWAP2 SUB SWAP1 RETURN JUMPDEST CALLVALUE DUP1 ISZERO PUSH2 0x158 JUMPI PUSH1 0x0 DUP1 REVERT JUMPDEST POP PUSH2 0x161 PUSH2 0x61A JUMP JUMPDEST PUSH1 0x40 MLOAD PUSH2 0x16E SWAP2 SWAP1 PUSH2 0xCD3 JUMP JUMPDEST PUSH1 0x40 MLOAD DUP1 SWAP2 SUB SWAP1 RETURN JUMPDEST CALLVALUE DUP1 ISZERO PUSH2 0x183 JUMPI PUSH1 0x0 DUP1 REVERT JUMPDEST POP PUSH2 0x18C PUSH2 0x621 JUMP JUMPDEST STOP JUMPDEST CALLVALUE DUP1 ISZERO PUSH2 0x19A JUMPI PUSH1 0x0 DUP1 REVERT JUMPDEST POP PUSH2 0x1A3 PUSH2 0x635 JUMP JUMPDEST PUSH1 0x40 MLOAD PUSH2 0x1B0 SWAP2 SWAP1 PUSH2 0xCFD JUMP JUMPDEST PUSH1 0x40 MLOAD DUP1 SWAP2 SUB SWAP1 RETURN JUMPDEST CALLVALUE DUP1 ISZERO PUSH2 0x1C5 JUMPI PUSH1 0x0 DUP1 REVERT JUMPDEST POP PUSH2 0x1CE PUSH2 0x65E JUMP JUMPDEST PUSH1 0x40 MLOAD PUSH2 0x1DB SWAP2 SWAP1 PUSH2 0xCD3 JUMP JUMPDEST PUSH1 0x40 MLOAD DUP1 SWAP2 SUB SWAP1 RETURN JUMPDEST CALLVALUE DUP1 ISZERO PUSH2 0x1F0 JUMPI PUSH1 0x0 DUP1 REVERT JUMPDEST POP PUSH2 0x20B PUSH1 0x4 DUP1 CALLDATASIZE SUB DUP2 ADD SWAP1 PUSH2 0x206 SWAP2 SWAP1 PUSH2 0xC52 JUMP JUMPDEST PUSH2 0x66A JUMP JUMPDEST STOP JUMPDEST CALLVALUE DUP1 ISZERO PUSH2 0x219 JUMPI PUSH1 0x0 DUP1 REVERT JUMPDEST POP PUSH2 0x222 PUSH2 0x6ED JUMP JUMPDEST STOP JUMPDEST PUSH2 0x22C PUSH2 0x932 JUMP JUMPDEST SELFBALANCE DUP2 GT ISZERO PUSH2 0x26F JUMPI PUSH1 0x40 MLOAD PUSH32 0x8C379A000000000000000000000000000000000000000000000000000000000 DUP2 MSTORE PUSH1 0x4 ADD PUSH2 0x266 SWAP1 PUSH2 0xD75 JUMP JUMPDEST PUSH1 0x40 MLOAD DUP1 SWAP2 SUB SWAP1 REVERT JUMPDEST CALLER PUSH20 0xFFFFFFFFFFFFFFFFFFFFFFFFFFFFFFFFFFFFFFFF AND PUSH2 0x8FC DUP3 SWAP1 DUP2 ISZERO MUL SWAP1 PUSH1 0x40 MLOAD PUSH1 0x0 PUSH1 0x40 MLOAD DUP1 DUP4 SUB DUP2 DUP6 DUP9 DUP9 CALL SWAP4 POP POP POP POP ISZERO DUP1 ISZERO PUSH2 0x2B5 JUMPI RETURNDATASIZE PUSH1 0x0 DUP1 RETURNDATACOPY RETURNDATASIZE PUSH1 0x0 REVERT JUMPDEST POP POP JUMP JUMPDEST ORIGIN PUSH20 0xFFFFFFFFFFFFFFFFFFFFFFFFFFFFFFFFFFFFFFFF AND CALLER PUSH20 0xFFFFFFFFFFFFFFFFFFFFFFFFFFFFFFFFFFFFFFFF AND EQ PUSH2 0x327 JUMPI PUSH1 0x40 MLOAD PUSH32 0x8C379A000000000000000000000000000000000000000000000000000000000 DUP2 MSTORE PUSH1 0x4 ADD PUSH2 0x31E SWAP1 PUSH2 0xDE1 JUMP JUMPDEST PUSH1 0x40 MLOAD DUP1 SWAP2 SUB SWAP1 REVERT JUMPDEST PUSH1 0x0 PUSH1 0x1 PUSH1 0x0 CALLER PUSH20 0xFFFFFFFFFFFFFFFFFFFFFFFFFFFFFFFFFFFFFFFF AND PUSH20 0xFFFFFFFFFFFFFFFFFFFFFFFFFFFFFFFFFFFFFFFF AND DUP2 MSTORE PUSH1 0x20 ADD SWAP1 DUP2 MSTORE PUSH1 0x20 ADD PUSH1 0x0 KECCAK256 SWAP1 POP PUSH1 0x0 PUSH2 0x374 PUSH2 0x9B0 JUMP JUMPDEST SWAP1 POP PUSH1 0x0 PUSH2 0x385 DUP4 PUSH1 0x2 ADD SLOAD PUSH2 0x9D2 JUMP JUMPDEST SWAP1 POP PUSH1 0x0 DUP2 GT PUSH2 0x3CA JUMPI PUSH1 0x40 MLOAD PUSH32 0x8C379A000000000000000000000000000000000000000000000000000000000 DUP2 MSTORE PUSH1 0x4 ADD PUSH2 0x3C1 SWAP1 PUSH2 0xE4D JUMP JUMPDEST PUSH1 0x40 MLOAD DUP1 SWAP2 SUB SWAP1 REVERT JUMPDEST DUP2 DUP4 PUSH1 0x6 ADD SLOAD LT PUSH2 0x410 JUMPI PUSH1 0x40 MLOAD PUSH32 0x8C379A000000000000000000000000000000000000000000000000000000000 DUP2 MSTORE PUSH1 0x4 ADD PUSH2 0x407 SWAP1 PUSH2 0xEDF JUMP JUMPDEST PUSH1 0x40 MLOAD DUP1 SWAP2 SUB SWAP1 REVERT JUMPDEST PUSH8 0xD02AB486CEDC0000 DUP2 DUP5 PUSH1 0x5 ADD SLOAD PUSH2 0x429 SWAP2 SWAP1 PUSH2 0xF2E JUMP JUMPDEST GT ISZERO PUSH2 0x46A JUMPI PUSH1 0x40 MLOAD PUSH32 0x8C379A000000000000000000000000000000000000000000000000000000000 DUP2 MSTORE PUSH1 0x4 ADD PUSH2 0x461 SWAP1 PUSH2 0xFAE JUMP JUMPDEST PUSH1 0x40 MLOAD DUP1 SWAP2 SUB SWAP1 REVERT JUMPDEST DUP1 SELFBALANCE LT ISZERO PUSH2 0x4AD JUMPI PUSH1 0x40 MLOAD PUSH32 0x8C379A000000000000000000000000000000000000000000000000000000000 DUP2 MSTORE PUSH1 0x4 ADD PUSH2 0x4A4 SWAP1 PUSH2 0x101A JUMP JUMPDEST PUSH1 0x40 MLOAD DUP1 SWAP2 SUB SWAP1 REVERT JUMPDEST DUP1 DUP4 PUSH1 0x5 ADD PUSH1 0x0 DUP3 DUP3 SLOAD PUSH2 0x4C1 SWAP2 SWAP1 PUSH2 0xF2E JUMP JUMPDEST SWAP3 POP POP DUP2 SWAP1 SSTORE POP DUP2 DUP4 PUSH1 0x6 ADD DUP2 SWAP1 SSTORE POP DUP1 DUP4 PUSH1 0x7 ADD PUSH1 0x0 DUP3 DUP3 SLOAD PUSH2 0x4E5 SWAP2 SWAP1 PUSH2 0xF2E JUMP JUMPDEST SWAP3 POP POP DUP2 SWAP1 SSTORE POP CALLER PUSH20 0xFFFFFFFFFFFFFFFFFFFFFFFFFFFFFFFFFFFFFFFF AND PUSH2 0x8FC DUP3 SWAP1 DUP2 ISZERO MUL SWAP1 PUSH1 0x40 MLOAD PUSH1 0x0 PUSH1 0x40 MLOAD DUP1 DUP4 SUB DUP2 DUP6 DUP9 DUP9 CALL SWAP4 POP POP POP POP ISZERO DUP1 ISZERO PUSH2 0x532 JUMPI RETURNDATASIZE PUSH1 0x0 DUP1 RETURNDATACOPY RETURNDATASIZE PUSH1 0x0 REVERT JUMPDEST POP CALLER PUSH20 0xFFFFFFFFFFFFFFFFFFFFFFFFFFFFFFFFFFFFFFFF AND PUSH32 0xF01DA32686223933D8A18A391060918C7F11A3648639EDD87AE013E2E2731743 DUP3 TIMESTAMP PUSH1 0x40 MLOAD PUSH2 0x57B SWAP3 SWAP2 SWAP1 PUSH2 0x103A JUMP JUMPDEST PUSH1 0x40 MLOAD DUP1 SWAP2 SUB SWAP1 LOG2 POP POP POP JUMP JUMPDEST PUSH1 0x0 DUP1 PUSH1 0x0 DUP1 PUSH1 0x0 PUSH1 0x1 PUSH1 0x0 DUP8 PUSH20 0xFFFFFFFFFFFFFFFFFFFFFFFFFFFFFFFFFFFFFFFF AND PUSH20 0xFFFFFFFFFFFFFFFFFFFFFFFFFFFFFFFFFFFFFFFF AND DUP2 MSTORE PUSH1 0x20 ADD SWAP1 DUP2 MSTORE PUSH1 0x20 ADD PUSH1 0x0 KECCAK256 SWAP1 POP PUSH1 0x0 PUSH2 0x5DB PUSH2 0xAAA JUMP JUMPDEST SWAP1 POP DUP1 DUP3 PUSH1 0x0 ADD SLOAD EQ PUSH2 0x5EF JUMPI PUSH1 0x0 PUSH2 0x5F5 JUMP JUMPDEST DUP2 PUSH1 0x1 ADD SLOAD JUMPDEST SWAP6 POP DUP2 PUSH1 0x2 ADD SLOAD SWAP5 POP DUP2 PUSH1 0x4 ADD SLOAD SWAP4 POP DUP2 PUSH1 0x7 ADD SLOAD SWAP3 POP POP POP SWAP2 SWAP4 POP SWAP2 SWAP4 JUMP JUMPDEST PUSH1 0x14 DUP2 JUMP JUMPDEST PUSH3 0x15180 DUP2 JUMP JUMPDEST PUSH2 0x629 PUSH2 0x932 JUMP JUMPDEST PUSH2 0x633 PUSH1 0x0 PUSH2 0xAC0 JUMP JUMPDEST JUMP JUMPDEST PUSH1 0x0 DUP1 PUSH1 0x0 SWAP1 SLOAD SWAP1 PUSH2 0x100 EXP SWAP1 DIV PUSH20 0xFFFFFFFFFFFFFFFFFFFFFFFFFFFFFFFFFFFFFFFF AND SWAP1 POP SWAP1 JUMP JUMPDEST PUSH8 0xD02AB486CEDC0000 DUP2 JUMP JUMPDEST PUSH2 0x672 PUSH2 0x932 JUMP JUMPDEST PUSH1 0x0 PUSH20 0xFFFFFFFFFFFFFFFFFFFFFFFFFFFFFFFFFFFFFFFF AND DUP2 PUSH20 0xFFFFFFFFFFFFFFFFFFFFFFFFFFFFFFFFFFFFFFFF AND SUB PUSH2 0x6E1 JUMPI PUSH1 0x40 MLOAD PUSH32 0x8C379A000000000000000000000000000000000000000000000000000000000 DUP2 MSTORE PUSH1 0x4 ADD PUSH2 0x6D8 SWAP1 PUSH2 0x10D5 JUMP JUMPDEST PUSH1 0x40 MLOAD DUP1 SWAP2 SUB SWAP1 REVERT JUMPDEST PUSH2 0x6EA DUP2 PUSH2 0xAC0 JUMP JUMPDEST POP JUMP JUMPDEST ORIGIN PUSH20 0xFFFFFFFFFFFFFFFFFFFFFFFFFFFFFFFFFFFFFFFF AND CALLER PUSH20 0xFFFFFFFFFFFFFFFFFFFFFFFFFFFFFFFFFFFFFFFF AND EQ PUSH2 0x75B JUMPI PUSH1 0x40 MLOAD PUSH32 0x8C379A000000000000000000000000000000000000000000000000000000000 DUP2 MSTORE PUSH1 0x4 ADD PUSH2 0x752 SWAP1 PUSH2 0xDE1 JUMP JUMPDEST PUSH1 0x40 MLOAD DUP1 SWAP2 SUB SWAP1 REVERT JUMPDEST PUSH1 0x0 PUSH1 0x1 PUSH1 0x0 CALLER PUSH20 0xFFFFFFFFFFFFFFFFFFFFFFFFFFFFFFFFFFFFFFFF AND PUSH20 0xFFFFFFFFFFFFFFFFFFFFFFFFFFFFFFFFFFFFFFFF AND DUP2 MSTORE PUSH1 0x20 ADD SWAP1 DUP2 MSTORE PUSH1 0x20 ADD PUSH1 0x0 KECCAK256 SWAP1 POP PUSH1 0x0 PUSH2 0x7A8 PUSH2 0xAAA JUMP JUMPDEST SWAP1 POP DUP1 DUP3 PUSH1 0x0 ADD SLOAD LT ISZERO PUSH2 0x806 JUMPI PUSH1 0x0 DUP3 PUSH1 0x1 ADD DUP2 SWAP1 SSTORE POP PUSH1 0x1 DUP2 PUSH2 0x7CD SWAP2 SWAP1 PUSH2 0x10F5 JUMP JUMPDEST DUP3 PUSH1 0x0 ADD SLOAD EQ DUP1 PUSH2 0x7ED JUMPI POP PUSH1 0x2 DUP2 PUSH2 0x7E6 SWAP2 SWAP1 PUSH2 0x10F5 JUMP JUMPDEST DUP3 PUSH1 0x0 ADD SLOAD EQ JUMPDEST PUSH2 0x7FC JUMPI PUSH1 0x0 DUP3 PUSH1 0x2 ADD DUP2 SWAP1 SSTORE POP JUMPDEST DUP1 DUP3 PUSH1 0x0 ADD DUP2 SWAP1 SSTORE POP JUMPDEST PUSH1 0x14 DUP3 PUSH1 0x1 ADD SLOAD LT PUSH2 0x84D JUMPI PUSH1 0x40 MLOAD PUSH32 0x8C379A000000000000000000000000000000000000000000000000000000000 DUP2 MSTORE PUSH1 0x4 ADD PUSH2 0x844 SWAP1 PUSH2 0x1175 JUMP JUMPDEST PUSH1 0x40 MLOAD DUP1 SWAP2 SUB SWAP1 REVERT JUMPDEST PUSH1 0x1 DUP3 PUSH1 0x1 ADD PUSH1 0x0 DUP3 DUP3 SLOAD PUSH2 0x862 SWAP2 SWAP1 PUSH2 0xF2E JUMP JUMPDEST SWAP3 POP POP DUP2 SWAP1 SSTORE POP TIMESTAMP DUP3 PUSH1 0x3 ADD DUP2 SWAP1 SSTORE POP PUSH1 0x1 DUP3 PUSH1 0x4 ADD PUSH1 0x0 DUP3 DUP3 SLOAD PUSH2 0x887 SWAP2 SWAP1 PUSH2 0xF2E JUMP JUMPDEST SWAP3 POP POP DUP2 SWAP1 SSTORE POP PUSH1 0x14 DUP3 PUSH1 0x1 ADD SLOAD SUB PUSH2 0x8B7 JUMPI PUSH1 0xA DUP3 PUSH1 0x4 ADD PUSH1 0x0 DUP3 DUP3 SLOAD PUSH2 0x8AF SWAP2 SWAP1 PUSH2 0xF2E JUMP JUMPDEST SWAP3 POP POP DUP2 SWAP1 SSTORE POP JUMPDEST PUSH1 0x1 DUP3 PUSH1 0x1 ADD SLOAD SUB PUSH2 0x8E0 JUMPI PUSH1 0x1 DUP3 PUSH1 0x2 ADD PUSH1 0x0 DUP3 DUP3 SLOAD PUSH2 0x8D8 SWAP2 SWAP1 PUSH2 0xF2E JUMP JUMPDEST SWAP3 POP POP DUP2 SWAP1 SSTORE POP JUMPDEST CALLER PUSH20 0xFFFFFFFFFFFFFFFFFFFFFFFFFFFFFFFFFFFFFFFF AND PUSH32 0xDC127BE18D76E446E5FC020307F45258733B6DE74A0E446901771CBC729C1924 TIMESTAMP PUSH1 0x40 MLOAD PUSH2 0x926 SWAP2 SWAP1 PUSH2 0xCD3 JUMP JUMPDEST PUSH1 0x40 MLOAD DUP1 SWAP2 SUB SWAP1 LOG2 POP POP JUMP JUMPDEST PUSH2 0x93A PUSH2 0xB84 JUMP JUMPDEST PUSH20 0xFFFFFFFFFFFFFFFFFFFFFFFFFFFFFFFFFFFFFFFF AND PUSH2 0x958 PUSH2 0x635 JUMP JUMPDEST PUSH20 0xFFFFFFFFFFFFFFFFFFFFFFFFFFFFFFFFFFFFFFFF AND EQ PUSH2 0x9AE JUMPI PUSH1 0x40 MLOAD PUSH32 0x8C379A000000000000000000000000000000000000000000000000000000000 DUP2 MSTORE PUSH1 0x4 ADD PUSH2 0x9A5 SWAP1 PUSH2 0x11E1 JUMP JUMPDEST PUSH1 0x40 MLOAD DUP1 SWAP2 SUB SWAP1 REVERT JUMPDEST JUMP JUMPDEST PUSH1 0x0 PUSH1 0x1E PUSH3 0x15180 PUSH2 0x9C2 SWAP2 SWAP1 PUSH2 0x1201 JUMP JUMPDEST TIMESTAMP PUSH2 0x9CD SWAP2 SWAP1 PUSH2 0x1272 JUMP JUMPDEST SWAP1 POP SWAP1 JUMP JUMPDEST PUSH1 0x0 PUSH1 0x32 DUP3 LT PUSH2 0xA28 JUMPI PUSH1 0x0 PUSH1 0xA PUSH1 0x14 DUP5 PUSH2 0x9ED SWAP2 SWAP1 PUSH2 0x10F5 JUMP JUMPDEST PUSH2 0x9F7 SWAP2 SWAP1 PUSH2 0x1272 JUMP JUMPDEST SWAP1 POP PUSH8 0x1BC16D674EC80000 DUP2 PUSH2 0xA0D SWAP2 SWAP1 PUSH2 0x1201 JUMP JUMPDEST PUSH8 0x53444835EC580000 PUSH2 0xA20 SWAP2 SWAP1 PUSH2 0xF2E JUMP JUMPDEST SWAP2 POP POP PUSH2 0xAA5 JUMP JUMPDEST PUSH1 0x1E DUP3 LT PUSH2 0xA40 JUMPI PUSH8 0x6F05B59D3B200000 SWAP1 POP PUSH2 0xAA5 JUMP JUMPDEST PUSH1 0x14 DUP3 LT PUSH2 0xA58 JUMPI PUSH8 0x53444835EC580000 SWAP1 POP PUSH2 0xAA5 JUMP JUMPDEST PUSH1 0xA DUP3 LT PUSH2 0xA70 JUMPI PUSH8 0x29A2241AF62C0000 SWAP1 POP PUSH2 0xAA5 JUMP JUMPDEST PUSH1 0x5 DUP3 LT PUSH2 0xA88 JUMPI PUSH8 0x14D1120D7B160000 SWAP1 POP PUSH2 0xAA5 JUMP JUMPDEST PUSH1 0x1 DUP3 LT PUSH2 0xAA0 JUMPI PUSH8 0x429D069189E0000 SWAP1 POP PUSH2 0xAA5 JUMP JUMPDEST PUSH1 0x0 SWAP1 POP JUMPDEST SWAP2 SWAP1 POP JUMP JUMPDEST PUSH1 0x0 PUSH3 0x15180 TIMESTAMP PUSH2 0xABB SWAP2 SWAP1 PUSH2 0x1272 JUMP JUMPDEST SWAP1 POP SWAP1 JUMP JUMPDEST PUSH1 0x0 DUP1 PUSH1 0x0 SWAP1 SLOAD SWAP1 PUSH2 0x100 EXP SWAP1 DIV PUSH20 0xFFFFFFFFFFFFFFFFFFFFFFFFFFFFFFFFFFFFFFFF AND SWAP1 POP DUP2 PUSH1 0x0 DUP1 PUSH2 0x100 EXP DUP2 SLOAD DUP2 PUSH20 0xFFFFFFFFFFFFFFFFFFFFFFFFFFFFFFFFFFFFFFFF MUL NOT AND SWAP1 DUP4 PUSH20 0xFFFFFFFFFFFFFFFFFFFFFFFFFFFFFFFFFFFFFFFF AND MUL OR SWAP1 SSTORE POP DUP2 PUSH20 0xFFFFFFFFFFFFFFFFFFFFFFFFFFFFFFFFFFFFFFFF AND DUP2 PUSH20 0xFFFFFFFFFFFFFFFFFFFFFFFFFFFFFFFFFFFFFFFF AND PUSH32 0x8BE0079C531659141344CD1FD0A4F28419497F9722A3DAAFE3B4186F6B6457E0 PUSH1 0x40 MLOAD PUSH1 0x40 MLOAD DUP1 SWAP2 SUB SWAP1 LOG3 POP POP JUMP JUMPDEST PUSH1 0x0 CALLER SWAP1 POP SWAP1 JUMP JUMPDEST PUSH1 0x0 DUP1 REVERT JUMPDEST PUSH1 0x0 DUP2 SWAP1 POP SWAP2 SWAP1 POP JUMP JUMPDEST PUSH2 0xBA4 DUP2 PUSH2 0xB91 JUMP JUMPDEST DUP2 EQ PUSH2 0xBAF JUMPI PUSH1 0x0 DUP1 REVERT JUMPDEST POP JUMP JUMPDEST PUSH1 0x0 DUP2 CALLDATALOAD SWAP1 POP PUSH2 0xBC1 DUP2 PUSH2 0xB9B JUMP JUMPDEST SWAP3 SWAP2 POP POP JUMP JUMPDEST PUSH1 0x0 PUSH1 0x20 DUP3 DUP5 SUB SLT ISZERO PUSH2 0xBDD JUMPI PUSH2 0xBDC PUSH2 0xB8C JUMP JUMPDEST JUMPDEST PUSH1 0x0 PUSH2 0xBEB DUP5 DUP3 DUP6 ADD PUSH2 0xBB2 JUMP JUMPDEST SWAP2 POP POP SWAP3 SWAP2 POP POP JUMP JUMPDEST PUSH1 0x0 PUSH20 0xFFFFFFFFFFFFFFFFFFFFFFFFFFFFFFFFFFFFFFFF DUP3 AND SWAP1 POP SWAP2 SWAP1 POP JUMP JUMPDEST PUSH1 0x0 PUSH2 0xC1F DUP3 PUSH2 0xBF4 JUMP JUMPDEST SWAP1 POP SWAP2 SWAP1 POP JUMP JUMPDEST PUSH2 0xC2F DUP2 PUSH2 0xC14 JUMP JUMPDEST DUP2 EQ PUSH2 0xC3A JUMPI PUSH1 0x0 DUP1 REVERT JUMPDEST POP JUMP JUMPDEST PUSH1 0x0 DUP2 CALLDATALOAD SWAP1 POP PUSH2 0xC4C DUP2 PUSH2 0xC26 JUMP JUMPDEST SWAP3 SWAP2 POP POP JUMP JUMPDEST PUSH1 0x0 PUSH1 0x20 DUP3 DUP5 SUB SLT ISZERO PUSH2 0xC68 JUMPI PUSH2 0xC67 PUSH2 0xB8C JUMP JUMPDEST JUMPDEST PUSH1 0x0 PUSH2 0xC76 DUP5 DUP3 DUP6 ADD PUSH2 0xC3D JUMP JUMPDEST SWAP2 POP POP SWAP3 SWAP2 POP POP JUMP JUMPDEST PUSH2 0xC88 DUP2 PUSH2 0xB91 JUMP JUMPDEST DUP3 MSTORE POP POP JUMP JUMPDEST PUSH1 0x0 PUSH1 0x80 DUP3 ADD SWAP1 POP PUSH2 0xCA3 PUSH1 0x0 DUP4 ADD DUP8 PUSH2 0xC7F JUMP JUMPDEST PUSH2 0xCB0 PUSH1 0x20 DUP4 ADD DUP7 PUSH2 0xC7F JUMP JUMPDEST PUSH2 0xCBD PUSH1 0x40 DUP4 ADD DUP6 PUSH2 0xC7F JUMP JUMPDEST PUSH2 0xCCA PUSH1 0x60 DUP4 ADD DUP5 PUSH2 0xC7F JUMP JUMPDEST SWAP6 SWAP5 POP POP POP POP POP JUMP JUMPDEST PUSH1 0x0 PUSH1 0x20 DUP3 ADD SWAP1 POP PUSH2 0xCE8 PUSH1 0x0 DUP4 ADD DUP5 PUSH2 0xC7F JUMP JUMPDEST SWAP3 SWAP2 POP POP JUMP JUMPDEST PUSH2 0xCF7 DUP2 PUSH2 0xC14 JUMP JUMPDEST DUP3 MSTORE POP POP JUMP JUMPDEST PUSH1 0x0 PUSH1 0x20 DUP3 ADD SWAP1 POP PUSH2 0xD12 PUSH1 0x0 DUP4 ADD DUP5 PUSH2 0xCEE JUMP JUMPDEST SWAP3 SWAP2 POP POP JUMP JUMPDEST PUSH1 0x0 DUP3 DUP3 MSTORE PUSH1 0x20 DUP3 ADD SWAP1 POP SWAP3 SWAP2 POP POP JUMP JUMPDEST PUSH32 0x496E73756666696369656E742062616C616E6365000000000000000000000000 PUSH1 0x0 DUP3 ADD MSTORE POP JUMP JUMPDEST PUSH1 0x0 PUSH2 0xD5F PUSH1 0x14 DUP4 PUSH2 0xD18 JUMP JUMPDEST SWAP2 POP PUSH2 0xD6A DUP3 PUSH2 0xD29 JUMP JUMPDEST PUSH1 0x20 DUP3 ADD SWAP1 POP SWAP2 SWAP1 POP JUMP JUMPDEST PUSH1 0x0 PUSH1 0x20 DUP3 ADD SWAP1 POP DUP2 DUP2 SUB PUSH1 0x0 DUP4 ADD MSTORE PUSH2 0xD8E DUP2 PUSH2 0xD52 JUMP JUMPDEST SWAP1 POP SWAP2 SWAP1 POP JUMP JUMPDEST PUSH32 0x4F6E6C7920454F4120616C6C6F77656400000000000000000000000000000000 PUSH1 0x0 DUP3 ADD MSTORE POP JUMP JUMPDEST PUSH1 0x0 PUSH2 0xDCB PUSH1 0x10 DUP4 PUSH2 0xD18 JUMP JUMPDEST SWAP2 POP PUSH2 0xDD6 DUP3 PUSH2 0xD95 JUMP JUMPDEST PUSH1 0x20 DUP3 ADD SWAP1 POP SWAP2 SWAP1 POP JUMP JUMPDEST PUSH1 0x0 PUSH1 0x20 DUP3 ADD SWAP1 POP DUP2 DUP2 SUB PUSH1 0x0 DUP4 ADD MSTORE PUSH2 0xDFA DUP2 PUSH2 0xDBE JUMP JUMPDEST SWAP1 POP SWAP2 SWAP1 POP JUMP JUMPDEST PUSH32 0x4E6F207265776172647320617661696C61626C65000000000000000000000000 PUSH1 0x0 DUP3 ADD MSTORE POP JUMP JUMPDEST PUSH1 0x0 PUSH2 0xE37 PUSH1 0x14 DUP4 PUSH2 0xD18 JUMP JUMPDEST SWAP2 POP PUSH2 0xE42 DUP3 PUSH2 0xE01 JUMP JUMPDEST PUSH1 0x20 DUP3 ADD SWAP1 POP SWAP2 SWAP1 POP JUMP JUMPDEST PUSH1 0x0 PUSH1 0x20 DUP3 ADD SWAP1 POP DUP2 DUP2 SUB PUSH1 0x0 DUP4 ADD MSTORE PUSH2 0xE66 DUP2 PUSH2 0xE2A JUMP JUMPDEST SWAP1 POP SWAP2 SWAP1 POP JUMP JUMPDEST PUSH32 0x52657761726420616C726561647920636C61696D65642074686973206D6F6E74 PUSH1 0x0 DUP3 ADD MSTORE PUSH32 0x6800000000000000000000000000000000000000000000000000000000000000 PUSH1 0x20 DUP3 ADD MSTORE POP JUMP JUMPDEST PUSH1 0x0 PUSH2 0xEC9 PUSH1 0x21 DUP4 PUSH2 0xD18 JUMP JUMPDEST SWAP2 POP PUSH2 0xED4 DUP3 PUSH2 0xE6D JUMP JUMPDEST PUSH1 0x40 DUP3 ADD SWAP1 POP SWAP2 SWAP1 POP JUMP JUMPDEST PUSH1 0x0 PUSH1 0x20 DUP3 ADD SWAP1 POP DUP2 DUP2 SUB PUSH1 0x0 DUP4 ADD MSTORE PUSH2 0xEF8 DUP2 PUSH2 0xEBC JUMP JUMPDEST SWAP1 POP SWAP2 SWAP1 POP JUMP JUMPDEST PUSH32 0x4E487B7100000000000000000000000000000000000000000000000000000000 PUSH1 0x0 MSTORE PUSH1 0x11 PUSH1 0x4 MSTORE PUSH1 0x24 PUSH1 0x0 REVERT JUMPDEST PUSH1 0x0 PUSH2 0xF39 DUP3 PUSH2 0xB91 JUMP JUMPDEST SWAP2 POP PUSH2 0xF44 DUP4 PUSH2 0xB91 JUMP JUMPDEST SWAP3 POP DUP3 DUP3 ADD SWAP1 POP DUP1 DUP3 GT ISZERO PUSH2 0xF5C JUMPI PUSH2 0xF5B PUSH2 0xEFF JUMP JUMPDEST JUMPDEST SWAP3 SWAP2 POP POP JUMP JUMPDEST PUSH32 0x4D6F6E74686C7920726577617264206361702065786365656465640000000000 PUSH1 0x0 DUP3 ADD MSTORE POP JUMP JUMPDEST PUSH1 0x0 PUSH2 0xF98 PUSH1 0x1B DUP4 PUSH2 0xD18 JUMP JUMPDEST SWAP2 POP PUSH2 0xFA3 DUP3 PUSH2 0xF62 JUMP JUMPDEST PUSH1 0x20 DUP3 ADD SWAP1 POP SWAP2 SWAP1 POP JUMP JUMPDEST PUSH1 0x0 PUSH1 0x20 DUP3 ADD SWAP1 POP DUP2 DUP2 SUB PUSH1 0x0 DUP4 ADD MSTORE PUSH2 0xFC7 DUP2 PUSH2 0xF8B JUMP JUMPDEST SWAP1 POP SWAP2 SWAP1 POP JUMP JUMPDEST PUSH32 0x496E73756666696369656E7420636F6E74726163742062616C616E6365000000 PUSH1 0x0 DUP3 ADD MSTORE POP JUMP JUMPDEST PUSH1 0x0 PUSH2 0x1004 PUSH1 0x1D DUP4 PUSH2 0xD18 JUMP JUMPDEST SWAP2 POP PUSH2 0x100F DUP3 PUSH2 0xFCE JUMP JUMPDEST PUSH1 0x20 DUP3 ADD SWAP1 POP SWAP2 SWAP1 POP JUMP JUMPDEST PUSH1 0x0 PUSH1 0x20 DUP3 ADD SWAP1 POP DUP2 DUP2 SUB PUSH1 0x0 DUP4 ADD MSTORE PUSH2 0x1033 DUP2 PUSH2 0xFF7 JUMP JUMPDEST SWAP1 POP SWAP2 SWAP1 POP JUMP JUMPDEST PUSH1 0x0 PUSH1 0x40 DUP3 ADD SWAP1 POP PUSH2 0x104F PUSH1 0x0 DUP4 ADD DUP6 PUSH2 0xC7F JUMP JUMPDEST PUSH2 0x105C PUSH1 0x20 DUP4 ADD DUP5 PUSH2 0xC7F JUMP JUMPDEST SWAP4 SWAP3 POP POP POP JUMP JUMPDEST PUSH32 0x4F776E61626C653A206E6577206F776E657220697320746865207A65726F2061 PUSH1 0x0 DUP3 ADD MSTORE PUSH32 0x6464726573730000000000000000000000000000000000000000000000000000 PUSH1 0x20 DUP3 ADD MSTORE POP JUMP JUMPDEST PUSH1 0x0 PUSH2 0x10BF PUSH1 0x26 DUP4 PUSH2 0xD18 JUMP JUMPDEST SWAP2 POP PUSH2 0x10CA DUP3 PUSH2 0x1063 JUMP JUMPDEST PUSH1 0x40 DUP3 ADD SWAP1 POP SWAP2 SWAP1 POP JUMP JUMPDEST PUSH1 0x0 PUSH1 0x20 DUP3 ADD SWAP1 POP DUP2 DUP2 SUB PUSH1 0x0 DUP4 ADD MSTORE PUSH2 0x10EE DUP2 PUSH2 0x10B2 JUMP JUMPDEST SWAP1 POP SWAP2 SWAP1 POP JUMP JUMPDEST PUSH1 0x0 PUSH2 0x1100 DUP3 PUSH2 0xB91 JUMP JUMPDEST SWAP2 POP PUSH2 0x110B DUP4 PUSH2 0xB91 JUMP JUMPDEST SWAP3 POP DUP3 DUP3 SUB SWAP1 POP DUP2 DUP2 GT ISZERO PUSH2 0x1123 JUMPI PUSH2 0x1122 PUSH2 0xEFF JUMP JUMPDEST JUMPDEST SWAP3 SWAP2 POP POP JUMP JUMPDEST PUSH32 0x4D61782074617073207265616368656420746F64617900000000000000000000 PUSH1 0x0 DUP3 ADD MSTORE POP JUMP JUMPDEST PUSH1 0x0 PUSH2 0x115F PUSH1 0x16 DUP4 PUSH2 0xD18 JUMP JUMPDEST SWAP2 POP PUSH2 0x116A DUP3 PUSH2 0x1129 JUMP JUMPDEST PUSH1 0x20 DUP3 ADD SWAP1 POP SWAP2 SWAP1 POP JUMP JUMPDEST PUSH1 0x0 PUSH1 0x20 DUP3 ADD SWAP1 POP DUP2 DUP2 SUB PUSH1 0x0 DUP4 ADD MSTORE PUSH2 0x118E DUP2 PUSH2 0x1152 JUMP JUMPDEST SWAP1 POP SWAP2 SWAP1 POP JUMP JUMPDEST PUSH32 0x4F776E61626C653A2063616C6C6572206973206E6F7420746865206F776E6572 PUSH1 0x0 DUP3 ADD MSTORE POP JUMP JUMPDEST PUSH1 0x0 PUSH2 0x11CB PUSH1 0x20 DUP4 PUSH2 0xD18 JUMP JUMPDEST SWAP2 POP PUSH2 0x11D6 DUP3 PUSH2 0x1195 JUMP JUMPDEST PUSH1 0x20 DUP3 ADD SWAP1 POP SWAP2 SWAP1 POP JUMP JUMPDEST PUSH1 0x0 PUSH1 0x20 DUP3 ADD SWAP1 POP DUP2 DUP2 SUB PUSH1 0x0 DUP4 ADD MSTORE PUSH2 0x11FA DUP2 PUSH2 0x11BE JUMP JUMPDEST SWAP1 POP SWAP2 SWAP1 POP JUMP JUMPDEST PUSH1 0x0 PUSH2 0x120C DUP3 PUSH2 0xB91 JUMP JUMPDEST SWAP2 POP PUSH2 0x1217 DUP4 PUSH2 0xB91 JUMP JUMPDEST SWAP3 POP DUP3 DUP3 MUL PUSH2 0x1225 DUP2 PUSH2 0xB91 JUMP JUMPDEST SWAP2 POP DUP3 DUP3 DIV DUP5 EQ DUP4 ISZERO OR PUSH2 0x123C JUMPI PUSH2 0x123B PUSH2 0xEFF JUMP JUMPDEST JUMPDEST POP SWAP3 SWAP2 POP POP JUMP JUMPDEST PUSH32 0x4E487B7100000000000000000000000000000000000000000000000000000000 PUSH1 0x0 MSTORE PUSH1 0x12 PUSH1 0x4 MSTORE PUSH1 0x24 PUSH1 0x0 REVERT JUMPDEST PUSH1 0x0 PUSH2 0x127D DUP3 PUSH2 0xB91 JUMP JUMPDEST SWAP2 POP PUSH2 0x1288 DUP4 PUSH2 0xB91 JUMP JUMPDEST SWAP3 POP DUP3 PUSH2 0x1298 JUMPI PUSH2 0x1297 PUSH2 0x1243 JUMP JUMPDEST JUMPDEST DUP3 DUP3 DIV SWAP1 POP SWAP3 SWAP2 POP POP JUMP INVALID LOG2 PUSH5 0x6970667358 0x22 SLT KECCAK256 JUMPI 0x4F 0xEA DUP14 NOT MLOAD MCOPY DUP13 0xBD 0x2B 0xE2 0xBB CALLER 0xC4 PUSH27 0x2ACFE2FD8C6EC21F93C9684D810340847064736F6C634300081C00 CALLER "},"methodIdentifiers":{"MAX_TAPS_PER_DAY()":"60c379dd","MONTHLY_REWARD_CAP()":"c79198e1","SECONDS_IN_DAY()":"61a52a36","claimRewards()":"372500ab","getUserStats(address)":"4e43603a","owner()":"8da5cb5b","renounceOwnership()":"715018a6","tap()":"fd221031","transferOwnership(address)":"f2fde38b","withdraw(uint256)":"2e1a7d4d"}}}}}