{
  "_format": "hh-sol-artifact-1",
  "contractName": "TapGem",
  "sourceName": "backend/contracts/TapGem.sol",
  "abi": [
    {
      "inputs": [],
      "stateMutability": "nonpayable",
      "type": "constructor"
    },
    {
      "anonymous": false,
      "inputs": [
        {
          "indexed": false,
          "internalType": "string",
          "name": "config",
          "type": "string"
        },
        {
          "indexed": false,
          "internalType": "uint256",
          "name": "newValue",
          "type": "uint256"
        },
        {
          "indexed": false,
          "internalType": "uint256",
          "name": "timestamp",
          "type": "uint256"
        }
      ],
      "name": "AdminConfigUpdated",
      "type": "event"
    },
    {
      "anonymous": false,
      "inputs": [
        {
          "indexed": true,
          "internalType": "address",
          "name": "previousOwner",
          "type": "address"
        },
        {
          "indexed": true,
          "internalType": "address",
          "name": "newOwner",
          "type": "address"
        }
      ],
      "name": "OwnershipTransferred",
      "type": "event"
    },
    {
      "anonymous": false,
      "inputs": [
        {
          "indexed": true,
          "internalType": "address",
          "name": "user",
          "type": "address"
        },
        {
          "indexed": false,
          "internalType": "uint256",
          "name": "amount",
          "type": "uint256"
        },
        {
          "indexed": false,
          "internalType": "uint256",
          "name": "timestamp",
          "type": "uint256"
        }
      ],
      "name": "RewardClaimed",
      "type": "event"
    },
    {
      "anonymous": false,
      "inputs": [
        {
          "indexed": true,
          "internalType": "address",
          "name": "user",
          "type": "address"
        },
        {
          "indexed": false,
          "internalType": "uint256",
          "name": "timestamp",
          "type": "uint256"
        },
        {
          "indexed": false,
          "internalType": "uint256",
          "name": "reward",
          "type": "uint256"
        }
      ],
      "name": "Tapped",
      "type": "event"
    },
    {
      "inputs": [],
      "name": "MONTHLY_REWARD_CAP",
      "outputs": [
        {
          "internalType": "uint256",
          "name": "",
          "type": "uint256"
        }
      ],
      "stateMutability": "view",
      "type": "function"
    },
    {
      "inputs": [],
      "name": "SECONDS_IN_DAY",
      "outputs": [
        {
          "internalType": "uint256",
          "name": "",
          "type": "uint256"
        }
      ],
      "stateMutability": "view",
      "type": "function"
    },
    {
      "inputs": [
        {
          "internalType": "uint256",
          "name": "streak",
          "type": "uint256"
        }
      ],
      "name": "_dailyCapForStreak",
      "outputs": [
        {
          "internalType": "uint256",
          "name": "",
          "type": "uint256"
        }
      ],
      "stateMutability": "view",
      "type": "function"
    },
    {
      "inputs": [
        {
          "internalType": "uint256",
          "name": "amount",
          "type": "uint256"
        }
      ],
      "name": "claimRewards",
      "outputs": [],
      "stateMutability": "nonpayable",
      "type": "function"
    },
    {
      "inputs": [
        {
          "internalType": "uint256",
          "name": "",
          "type": "uint256"
        }
      ],
      "name": "dailyCapPerStreakTier",
      "outputs": [
        {
          "internalType": "uint256",
          "name": "",
          "type": "uint256"
        }
      ],
      "stateMutability": "view",
      "type": "function"
    },
    {
      "inputs": [
        {
          "internalType": "address",
          "name": "userAddr",
          "type": "address"
        }
      ],
      "name": "getUserStats",
      "outputs": [
        {
          "internalType": "uint256",
          "name": "tapsToday",
          "type": "uint256"
        },
        {
          "internalType": "uint256",
          "name": "currentStreak",
          "type": "uint256"
        },
        {
          "internalType": "uint256",
          "name": "points",
          "type": "uint256"
        },
        {
          "internalType": "uint256",
          "name": "unclaimedRewards",
          "type": "uint256"
        },
        {
          "internalType": "uint256",
          "name": "totalRewardClaimed",
          "type": "uint256"
        }
      ],
      "stateMutability": "view",
      "type": "function"
    },
    {
      "inputs": [],
      "name": "maxTapsPerDay",
      "outputs": [
        {
          "internalType": "uint256",
          "name": "",
          "type": "uint256"
        }
      ],
      "stateMutability": "view",
      "type": "function"
    },
    {
      "inputs": [],
      "name": "owner",
      "outputs": [
        {
          "internalType": "address",
          "name": "",
          "type": "address"
        }
      ],
      "stateMutability": "view",
      "type": "function"
    },
    {
      "inputs": [],
      "name": "renounceOwnership",
      "outputs": [],
      "stateMutability": "nonpayable",
      "type": "function"
    },
    {
      "inputs": [
        {
          "internalType": "uint256",
          "name": "streak",
          "type": "uint256"
        },
        {
          "internalType": "uint256",
          "name": "dailyCapWei",
          "type": "uint256"
        }
      ],
      "name": "setDailyCapPerStreak",
      "outputs": [],
      "stateMutability": "nonpayable",
      "type": "function"
    },
    {
      "inputs": [
        {
          "internalType": "uint256",
          "name": "newLimit",
          "type": "uint256"
        }
      ],
      "name": "setMaxTapsPerDay",
      "outputs": [],
      "stateMutability": "nonpayable",
      "type": "function"
    },
    {
      "inputs": [
        {
          "internalType": "uint256",
          "name": "capInWei",
          "type": "uint256"
        }
      ],
      "name": "setMonthlyRewardCap",
      "outputs": [],
      "stateMutability": "nonpayable",
      "type": "function"
    },
    {
      "inputs": [],
      "name": "tap",
      "outputs": [],
      "stateMutability": "nonpayable",
      "type": "function"
    },
    {
      "inputs": [
        {
          "internalType": "address",
          "name": "newOwner",
          "type": "address"
        }
      ],
      "name": "transferOwnership",
      "outputs": [],
      "stateMutability": "nonpayable",
      "type": "function"
    },
    {
      "inputs": [
        {
          "internalType": "uint256",
          "name": "amount",
          "type": "uint256"
        }
      ],
      "name": "withdraw",
      "outputs": [],
      "stateMutability": "nonpayable",
      "type": "function"
    },
    {
      "stateMutability": "payable",
      "type": "receive"
    }
  ],
  "bytecode": "0x60806040526201518060015567d02ab486cedc0000600255601460035534801561002857600080fd5b5061004561003a61015160201b60201c565b61015960201b60201c565b6702c68af0bb14000060056000808152602001908152602001600020819055506706f05b59d3b20000600560006001815260200190815260200160002081905550670853a0d2313c0000600560006005815260200190815260200160002081905550670a688906bd8b000060056000600a815260200190815260200160002081905550670c7d713b49da0000600560006014815260200190815260200160002081905550670de0b6b3a764000060056000601e8152602001908152602001600020819055506714d1120d7b1600006005600060328152602001908152602001600020819055506714d1120d7b16000060056000604681526020019081526020016000208190555061021d565b600033905090565b60008060009054906101000a900473ffffffffffffffffffffffffffffffffffffffff169050816000806101000a81548173ffffffffffffffffffffffffffffffffffffffff021916908373ffffffffffffffffffffffffffffffffffffffff1602179055508173ffffffffffffffffffffffffffffffffffffffff168173ffffffffffffffffffffffffffffffffffffffff167f8be0079c531659141344cd1fd0a4f28419497f9722a3daafe3b4186f6b6457e060405160405180910390a35050565b611bc88061022c6000396000f3fe6080604052600436106100ec5760003560e01c806361a52a361161008a578063bfeab00711610059578063bfeab007146102db578063c79198e114610318578063f2fde38b14610343578063fd2210311461036c576100f3565b806361a52a3614610243578063715018a61461026e5780638da5cb5b14610285578063a50ae54a146102b0576100f3565b80632e1a7d4d116100c65780632e1a7d4d146101735780633e652d7a1461019c57806347e1d0ed146101c55780634e43603a14610202576100f3565b8063053390e3146100f85780630962ef79146101215780631970cb951461014a576100f3565b366100f357005b600080fd5b34801561010457600080fd5b5061011f600480360381019061011a91906110fe565b610383565b005b34801561012d57600080fd5b50610148600480360381019061014391906110fe565b610472565b005b34801561015657600080fd5b50610171600480360381019061016c919061112b565b61075d565b005b34801561017f57600080fd5b5061019a600480360381019061019591906110fe565b6108a2565b005b3480156101a857600080fd5b506101c360048036038101906101be91906110fe565b610937565b005b3480156101d157600080fd5b506101ec60048036038101906101e791906110fe565b610a76565b6040516101f9919061117a565b60405180910390f35b34801561020e57600080fd5b50610229600480360381019061022491906111f3565b610a8e565b60405161023a959493929190611220565b60405180910390f35b34801561024f57600080fd5b50610258610b25565b604051610265919061117a565b60405180910390f35b34801561027a57600080fd5b50610283610b2b565b005b34801561029157600080fd5b5061029a610b3f565b6040516102a79190611282565b60405180910390f35b3480156102bc57600080fd5b506102c5610b68565b6040516102d2919061117a565b60405180910390f35b3480156102e757600080fd5b5061030260048036038101906102fd91906110fe565b610b6e565b60405161030f919061117a565b60405180910390f35b34801561032457600080fd5b5061032d610bcf565b60405161033a919061117a565b60405180910390f35b34801561034f57600080fd5b5061036a600480360381019061036591906111f3565b610bd5565b005b34801561037857600080fd5b50610381610c58565b005b61038b610b3f565b73ffffffffffffffffffffffffffffffffffffffff163373ffffffffffffffffffffffffffffffffffffffff161480156103f057503373ffffffffffffffffffffffffffffffffffffffff163273ffffffffffffffffffffffffffffffffffffffff16145b61042f576040517f08c379a0000000000000000000000000000000000000000000000000000000008152600401610426906112fa565b60405180910390fd5b806002819055507f97e02e98c802f7d6c86544d22a79ba7a78d22d9acf3cffb95f74c0f345dbfa518142604051610467929190611366565b60405180910390a150565b3273ffffffffffffffffffffffffffffffffffffffff163373ffffffffffffffffffffffffffffffffffffffff16146104e0576040517f08c379a00000000000000000000000000000000000000000000000000000000081526004016104d7906113ee565b60405180910390fd5b60008111610523576040517f08c379a000000000000000000000000000000000000000000000000000000000815260040161051a9061145a565b60405180910390fd5b6000600460003373ffffffffffffffffffffffffffffffffffffffff1673ffffffffffffffffffffffffffffffffffffffff16815260200190815260200160002090506000610570610f43565b9050808260070154101561059257600082600601819055508082600701819055505b82826005015410156105d9576040517f08c379a00000000000000000000000000000000000000000000000000000000081526004016105d0906114c6565b60405180910390fd5b6002548383600601546105ec9190611515565b111561062d576040517f08c379a000000000000000000000000000000000000000000000000000000000815260040161062490611595565b60405180910390fd5b82471015610670576040517f08c379a000000000000000000000000000000000000000000000000000000000815260040161066790611601565b60405180910390fd5b828260050160008282546106849190611621565b925050819055508282600601600082825461069f9190611515565b92505081905550828260080160008282546106ba9190611515565b925050819055503373ffffffffffffffffffffffffffffffffffffffff166108fc849081150290604051600060405180830381858888f19350505050158015610707573d6000803e3d6000fd5b503373ffffffffffffffffffffffffffffffffffffffff167ff01da32686223933d8a18a391060918c7f11a3648639edd87ae013e2e27317438442604051610750929190611655565b60405180910390a2505050565b610765610b3f565b73ffffffffffffffffffffffffffffffffffffffff163373ffffffffffffffffffffffffffffffffffffffff161480156107ca57503373ffffffffffffffffffffffffffffffffffffffff163273ffffffffffffffffffffffffffffffffffffffff16145b610809576040517f08c379a0000000000000000000000000000000000000000000000000000000008152600401610800906112fa565b60405180910390fd5b600082101561084d576040517f08c379a0000000000000000000000000000000000000000000000000000000008152600401610844906116ca565b60405180910390fd5b8060056000848152602001908152602001600020819055507f97e02e98c802f7d6c86544d22a79ba7a78d22d9acf3cffb95f74c0f345dbfa518142604051610896929190611736565b60405180910390a15050565b6108aa610f64565b478111156108ed576040517f08c379a00000000000000000000000000000000000000000000000000000000081526004016108e4906117be565b60405180910390fd5b3373ffffffffffffffffffffffffffffffffffffffff166108fc829081150290604051600060405180830381858888f19350505050158015610933573d6000803e3d6000fd5b5050565b61093f610b3f565b73ffffffffffffffffffffffffffffffffffffffff163373ffffffffffffffffffffffffffffffffffffffff161480156109a457503373ffffffffffffffffffffffffffffffffffffffff163273ffffffffffffffffffffffffffffffffffffffff16145b6109e3576040517f08c379a00000000000000000000000000000000000000000000000000000000081526004016109da906112fa565b60405180910390fd5b6000811180156109f4575060648111155b610a33576040517f08c379a0000000000000000000000000000000000000000000000000000000008152600401610a2a9061182a565b60405180910390fd5b806003819055507f97e02e98c802f7d6c86544d22a79ba7a78d22d9acf3cffb95f74c0f345dbfa518142604051610a6b929190611896565b60405180910390a150565b60056020528060005260406000206000915090505481565b600080600080600080600460008873ffffffffffffffffffffffffffffffffffffffff1673ffffffffffffffffffffffffffffffffffffffff16815260200190815260200160002090506000610ae2610fe2565b905080826000015414610af6576000610afc565b81600101545b965081600201549550816004015494508160050154935081600801549250505091939590929450565b60015481565b610b33610f64565b610b3d6000610ff7565b565b60008060009054906101000a900473ffffffffffffffffffffffffffffffffffffffff16905090565b60035481565b6000806000905060005b838111610bc557600060056000838152602001908152602001600020541115610bb257600560008281526020019081526020016000205491505b8080610bbd906118d2565b915050610b78565b5080915050919050565b60025481565b610bdd610f64565b600073ffffffffffffffffffffffffffffffffffffffff168173ffffffffffffffffffffffffffffffffffffffff1603610c4c576040517f08c379a0000000000000000000000000000000000000000000000000000000008152600401610c439061198c565b60405180910390fd5b610c5581610ff7565b50565b3273ffffffffffffffffffffffffffffffffffffffff163373ffffffffffffffffffffffffffffffffffffffff1614610cc6576040517f08c379a0000000000000000000000000000000000000000000000000000000008152600401610cbd906113ee565b60405180910390fd5b6000600460003373ffffffffffffffffffffffffffffffffffffffff1673ffffffffffffffffffffffffffffffffffffffff16815260200190815260200160002090506000610d13610fe2565b90508082600001541015610d6257600181610d2e9190611621565b82600001541015610d4457600082600201819055505b60008260010181905550600082600901819055508082600001819055505b600354826001015410610daa576040517f08c379a0000000000000000000000000000000000000000000000000000000008152600401610da1906119f8565b60405180910390fd5b6001826001016000828254610dbf9190611515565b925050819055504282600301819055506001826004016000828254610de49190611515565b925050819055506001826001015403610e14576001826002016000828254610e0c9190611515565b925050819055505b6000610e238360020154610b6e565b9050600083600901548211610e39576000610e4a565b836009015482610e499190611621565b5b905060008111610e8f576040517f08c379a0000000000000000000000000000000000000000000000000000000008152600401610e8690611a64565b60405180910390fd5b600060035483610e9f9190611ab3565b9050600082821115610eb15782610eb3565b815b905080866009016000828254610ec99190611515565b9250508190555080866005016000828254610ee49190611515565b925050819055503373ffffffffffffffffffffffffffffffffffffffff167fb7c9ae4f109ac6ad4139e4210faa85008cc86adae20e03f74ae5a75de06ce9b44283604051610f33929190611655565b60405180910390a2505050505050565b6000601e600154610f549190611ae4565b42610f5f9190611ab3565b905090565b610f6c6110bb565b73ffffffffffffffffffffffffffffffffffffffff16610f8a610b3f565b73ffffffffffffffffffffffffffffffffffffffff1614610fe0576040517f08c379a0000000000000000000000000000000000000000000000000000000008152600401610fd790611b72565b60405180910390fd5b565b600060015442610ff29190611ab3565b905090565b60008060009054906101000a900473ffffffffffffffffffffffffffffffffffffffff169050816000806101000a81548173ffffffffffffffffffffffffffffffffffffffff021916908373ffffffffffffffffffffffffffffffffffffffff1602179055508173ffffffffffffffffffffffffffffffffffffffff168173ffffffffffffffffffffffffffffffffffffffff167f8be0079c531659141344cd1fd0a4f28419497f9722a3daafe3b4186f6b6457e060405160405180910390a35050565b600033905090565b600080fd5b6000819050919050565b6110db816110c8565b81146110e657600080fd5b50565b6000813590506110f8816110d2565b92915050565b600060208284031215611114576111136110c3565b5b6000611122848285016110e9565b91505092915050565b60008060408385031215611142576111416110c3565b5b6000611150858286016110e9565b9250506020611161858286016110e9565b9150509250929050565b611174816110c8565b82525050565b600060208201905061118f600083018461116b565b92915050565b600073ffffffffffffffffffffffffffffffffffffffff82169050919050565b60006111c082611195565b9050919050565b6111d0816111b5565b81146111db57600080fd5b50565b6000813590506111ed816111c7565b92915050565b600060208284031215611209576112086110c3565b5b6000611217848285016111de565b91505092915050565b600060a082019050611235600083018861116b565b611242602083018761116b565b61124f604083018661116b565b61125c606083018561116b565b611269608083018461116b565b9695505050505050565b61127c816111b5565b82525050565b60006020820190506112976000830184611273565b92915050565b600082825260208201905092915050565b7f4f6e6c79206f776e657220454f41000000000000000000000000000000000000600082015250565b60006112e4600e8361129d565b91506112ef826112ae565b602082019050919050565b60006020820190508181036000830152611313816112d7565b9050919050565b7f6d6f6e74686c7952657761726443617000000000000000000000000000000000600082015250565b600061135060108361129d565b915061135b8261131a565b602082019050919050565b6000606082019050818103600083015261137f81611343565b905061138e602083018561116b565b61139b604083018461116b565b9392505050565b7f4f6e6c7920454f4120616c6c6f77656400000000000000000000000000000000600082015250565b60006113d860108361129d565b91506113e3826113a2565b602082019050919050565b60006020820190508181036000830152611407816113cb565b9050919050565b7f436c61696d20616d6f756e74206d757374206265203e20300000000000000000600082015250565b600061144460188361129d565b915061144f8261140e565b602082019050919050565b6000602082019050818103600083015261147381611437565b9050919050565b7f4e6f7420656e6f75676820756e636c61696d6564207265776172647300000000600082015250565b60006114b0601c8361129d565b91506114bb8261147a565b602082019050919050565b600060208201905081810360008301526114df816114a3565b9050919050565b7f4e487b7100000000000000000000000000000000000000000000000000000000600052601160045260246000fd5b6000611520826110c8565b915061152b836110c8565b9250828201905080821115611543576115426114e6565b5b92915050565b7f4d6f6e74686c7920636170206578636565646564000000000000000000000000600082015250565b600061157f60148361129d565b915061158a82611549565b602082019050919050565b600060208201905081810360008301526115ae81611572565b9050919050565b7f496e73756666696369656e7420636f6e74726163742062616c616e6365000000600082015250565b60006115eb601d8361129d565b91506115f6826115b5565b602082019050919050565b6000602082019050818103600083015261161a816115de565b9050919050565b600061162c826110c8565b9150611637836110c8565b925082820390508181111561164f5761164e6114e6565b5b92915050565b600060408201905061166a600083018561116b565b611677602083018461116b565b9392505050565b7f496e76616c69642073747265616b207469657200000000000000000000000000600082015250565b60006116b460138361129d565b91506116bf8261167e565b602082019050919050565b600060208201905081810360008301526116e3816116a7565b9050919050565b7f6461696c7943617050657253747265616b546965720000000000000000000000600082015250565b600061172060158361129d565b915061172b826116ea565b602082019050919050565b6000606082019050818103600083015261174f81611713565b905061175e602083018561116b565b61176b604083018461116b565b9392505050565b7f496e73756666696369656e742062616c616e6365000000000000000000000000600082015250565b60006117a860148361129d565b91506117b382611772565b602082019050919050565b600060208201905081810360008301526117d78161179b565b9050919050565b7f496e76616c696420746170206c696d6974000000000000000000000000000000600082015250565b600061181460118361129d565b915061181f826117de565b602082019050919050565b6000602082019050818103600083015261184381611807565b9050919050565b7f6d61785461707350657244617900000000000000000000000000000000000000600082015250565b6000611880600d8361129d565b915061188b8261184a565b602082019050919050565b600060608201905081810360008301526118af81611873565b90506118be602083018561116b565b6118cb604083018461116b565b9392505050565b60006118dd826110c8565b91507fffffffffffffffffffffffffffffffffffffffffffffffffffffffffffffffff820361190f5761190e6114e6565b5b600182019050919050565b7f4f776e61626c653a206e6577206f776e657220697320746865207a65726f206160008201527f6464726573730000000000000000000000000000000000000000000000000000602082015250565b600061197660268361129d565b91506119818261191a565b604082019050919050565b600060208201905081810360008301526119a581611969565b9050919050565b7f4d61782074617073207265616368656420746f64617900000000000000000000600082015250565b60006119e260168361129d565b91506119ed826119ac565b602082019050919050565b60006020820190508181036000830152611a11816119d5565b9050919050565b7f4461696c79205354542063617020726561636865640000000000000000000000600082015250565b6000611a4e60158361129d565b9150611a5982611a18565b602082019050919050565b60006020820190508181036000830152611a7d81611a41565b9050919050565b7f4e487b7100000000000000000000000000000000000000000000000000000000600052601260045260246000fd5b6000611abe826110c8565b9150611ac9836110c8565b925082611ad957611ad8611a84565b5b828204905092915050565b6000611aef826110c8565b9150611afa836110c8565b9250828202611b08816110c8565b91508282048414831517611b1f57611b1e6114e6565b5b5092915050565b7f4f776e61626c653a2063616c6c6572206973206e6f7420746865206f776e6572600082015250565b6000611b5c60208361129d565b9150611b6782611b26565b602082019050919050565b60006020820190508181036000830152611b8b81611b4f565b905091905056fea26469706673582212208f9f10f0b342b41c9d04ca4ed7394d711f55b3276937cd7a026c84a5235b0ef664736f6c634300081c0033",
  "linkReferences": {},
  "deployedLinkReferences": {}
}