{
  "_format": "hh-sol-artifact-1",
  "contractName": "TapGem",
  "sourceName": "contracts/TapGem.sol",
  "abi": [
    {
      "anonymous": false,
      "inputs": [
        {
          "indexed": true,
          "internalType": "address",
          "name": "previousOwner",
          "type": "address"
        },
        {
          "indexed": true,
          "internalType": "address",
          "name": "newOwner",
          "type": "address"
        }
      ],
      "name": "OwnershipTransferred",
      "type": "event"
    },
    {
      "anonymous": false,
      "inputs": [
        {
          "indexed": true,
          "internalType": "address",
          "name": "user",
          "type": "address"
        },
        {
          "indexed": false,
          "internalType": "uint256",
          "name": "amount",
          "type": "uint256"
        },
        {
          "indexed": false,
          "internalType": "uint256",
          "name": "timestamp",
          "type": "uint256"
        }
      ],
      "name": "RewardClaimed",
      "type": "event"
    },
    {
      "anonymous": false,
      "inputs": [
        {
          "indexed": true,
          "internalType": "address",
          "name": "user",
          "type": "address"
        },
        {
          "indexed": false,
          "internalType": "uint256",
          "name": "timestamp",
          "type": "uint256"
        }
      ],
      "name": "Tapped",
      "type": "event"
    },
    {
      "inputs": [],
      "name": "MAX_TAPS_PER_DAY",
      "outputs": [
        {
          "internalType": "uint256",
          "name": "",
          "type": "uint256"
        }
      ],
      "stateMutability": "view",
      "type": "function"
    },
    {
      "inputs": [],
      "name": "MONTHLY_REWARD_CAP",
      "outputs": [
        {
          "internalType": "uint256",
          "name": "",
          "type": "uint256"
        }
      ],
      "stateMutability": "view",
      "type": "function"
    },
    {
      "inputs": [],
      "name": "SECONDS_IN_DAY",
      "outputs": [
        {
          "internalType": "uint256",
          "name": "",
          "type": "uint256"
        }
      ],
      "stateMutability": "view",
      "type": "function"
    },
    {
      "inputs": [],
      "name": "claimRewards",
      "outputs": [],
      "stateMutability": "nonpayable",
      "type": "function"
    },
    {
      "inputs": [
        {
          "internalType": "address",
          "name": "userAddr",
          "type": "address"
        }
      ],
      "name": "getUserStats",
      "outputs": [
        {
          "internalType": "uint256",
          "name": "tapsToday",
          "type": "uint256"
        },
        {
          "internalType": "uint256",
          "name": "currentStreak",
          "type": "uint256"
        },
        {
          "internalType": "uint256",
          "name": "points",
          "type": "uint256"
        },
        {
          "internalType": "uint256",
          "name": "totalRewardClaimed",
          "type": "uint256"
        }
      ],
      "stateMutability": "view",
      "type": "function"
    },
    {
      "inputs": [],
      "name": "owner",
      "outputs": [
        {
          "internalType": "address",
          "name": "",
          "type": "address"
        }
      ],
      "stateMutability": "view",
      "type": "function"
    },
    {
      "inputs": [],
      "name": "renounceOwnership",
      "outputs": [],
      "stateMutability": "nonpayable",
      "type": "function"
    },
    {
      "inputs": [],
      "name": "tap",
      "outputs": [],
      "stateMutability": "nonpayable",
      "type": "function"
    },
    {
      "inputs": [
        {
          "internalType": "address",
          "name": "newOwner",
          "type": "address"
        }
      ],
      "name": "transferOwnership",
      "outputs": [],
      "stateMutability": "nonpayable",
      "type": "function"
    },
    {
      "inputs": [
        {
          "internalType": "uint256",
          "name": "amount",
          "type": "uint256"
        }
      ],
      "name": "withdraw",
      "outputs": [],
      "stateMutability": "nonpayable",
      "type": "function"
    },
    {
      "stateMutability": "payable",
      "type": "receive"
    }
  ],
  "bytecode": "0x608060405234801561001057600080fd5b5061002d61002261003260201b60201c565b61003a60201b60201c565b6100fe565b600033905090565b60008060009054906101000a900473ffffffffffffffffffffffffffffffffffffffff169050816000806101000a81548173ffffffffffffffffffffffffffffffffffffffff021916908373ffffffffffffffffffffffffffffffffffffffff1602179055508173ffffffffffffffffffffffffffffffffffffffff168173ffffffffffffffffffffffffffffffffffffffff167f8be0079c531659141344cd1fd0a4f28419497f9722a3daafe3b4186f6b6457e060405160405180910390a35050565b6112d98061010d6000396000f3fe6080604052600436106100955760003560e01c8063715018a611610059578063715018a6146101775780638da5cb5b1461018e578063c79198e1146101b9578063f2fde38b146101e4578063fd2210311461020d5761009c565b80632e1a7d4d146100a1578063372500ab146100ca5780634e43603a146100e157806360c379dd1461012157806361a52a361461014c5761009c565b3661009c57005b600080fd5b3480156100ad57600080fd5b506100c860048036038101906100c39190610bc7565b610224565b005b3480156100d657600080fd5b506100df6102b9565b005b3480156100ed57600080fd5b5061010860048036038101906101039190610c52565b610588565b6040516101189493929190610c8e565b60405180910390f35b34801561012d57600080fd5b50610136610615565b6040516101439190610cd3565b60405180910390f35b34801561015857600080fd5b5061016161061a565b60405161016e9190610cd3565b60405180910390f35b34801561018357600080fd5b5061018c610621565b005b34801561019a57600080fd5b506101a3610635565b6040516101b09190610cfd565b60405180910390f35b3480156101c557600080fd5b506101ce61065e565b6040516101db9190610cd3565b60405180910390f35b3480156101f057600080fd5b5061020b60048036038101906102069190610c52565b61066a565b005b34801561021957600080fd5b506102226106ed565b005b61022c610932565b4781111561026f576040517f08c379a000000000000000000000000000000000000000000000000000000000815260040161026690610d75565b60405180910390fd5b3373ffffffffffffffffffffffffffffffffffffffff166108fc829081150290604051600060405180830381858888f193505050501580156102b5573d6000803e3d6000fd5b5050565b3273ffffffffffffffffffffffffffffffffffffffff163373ffffffffffffffffffffffffffffffffffffffff1614610327576040517f08c379a000000000000000000000000000000000000000000000000000000000815260040161031e90610de1565b60405180910390fd5b6000600160003373ffffffffffffffffffffffffffffffffffffffff1673ffffffffffffffffffffffffffffffffffffffff168152602001908152602001600020905060006103746109b0565b9050600061038583600201546109d2565b9050600081116103ca576040517f08c379a00000000000000000000000000000000000000000000000000000000081526004016103c190610e4d565b60405180910390fd5b81836006015410610410576040517f08c379a000000000000000000000000000000000000000000000000000000000815260040161040790610edf565b60405180910390fd5b67d02ab486cedc00008184600501546104299190610f2e565b111561046a576040517f08c379a000000000000000000000000000000000000000000000000000000000815260040161046190610fae565b60405180910390fd5b804710156104ad576040517f08c379a00000000000000000000000000000000000000000000000000000000081526004016104a49061101a565b60405180910390fd5b808360050160008282546104c19190610f2e565b92505081905550818360060181905550808360070160008282546104e59190610f2e565b925050819055503373ffffffffffffffffffffffffffffffffffffffff166108fc829081150290604051600060405180830381858888f19350505050158015610532573d6000803e3d6000fd5b503373ffffffffffffffffffffffffffffffffffffffff167ff01da32686223933d8a18a391060918c7f11a3648639edd87ae013e2e2731743824260405161057b92919061103a565b60405180910390a2505050565b6000806000806000600160008773ffffffffffffffffffffffffffffffffffffffff1673ffffffffffffffffffffffffffffffffffffffff168152602001908152602001600020905060006105db610aaa565b9050808260000154146105ef5760006105f5565b81600101545b955081600201549450816004015493508160070154925050509193509193565b601481565b6201518081565b610629610932565b6106336000610ac0565b565b60008060009054906101000a900473ffffffffffffffffffffffffffffffffffffffff16905090565b67d02ab486cedc000081565b610672610932565b600073ffffffffffffffffffffffffffffffffffffffff168173ffffffffffffffffffffffffffffffffffffffff16036106e1576040517f08c379a00000000000000000000000000000000000000000000000000000000081526004016106d8906110d5565b60405180910390fd5b6106ea81610ac0565b50565b3273ffffffffffffffffffffffffffffffffffffffff163373ffffffffffffffffffffffffffffffffffffffff161461075b576040517f08c379a000000000000000000000000000000000000000000000000000000000815260040161075290610de1565b60405180910390fd5b6000600160003373ffffffffffffffffffffffffffffffffffffffff1673ffffffffffffffffffffffffffffffffffffffff168152602001908152602001600020905060006107a8610aaa565b9050808260000154101561080657600082600101819055506001816107cd91906110f5565b826000015414806107ed57506002816107e691906110f5565b8260000154145b6107fc57600082600201819055505b8082600001819055505b601482600101541061084d576040517f08c379a000000000000000000000000000000000000000000000000000000000815260040161084490611175565b60405180910390fd5b60018260010160008282546108629190610f2e565b9250508190555042826003018190555060018260040160008282546108879190610f2e565b9250508190555060148260010154036108b757600a8260040160008282546108af9190610f2e565b925050819055505b60018260010154036108e05760018260020160008282546108d89190610f2e565b925050819055505b3373ffffffffffffffffffffffffffffffffffffffff167fdc127be18d76e446e5fc020307f45258733b6de74a0e446901771cbc729c1924426040516109269190610cd3565b60405180910390a25050565b61093a610b84565b73ffffffffffffffffffffffffffffffffffffffff16610958610635565b73ffffffffffffffffffffffffffffffffffffffff16146109ae576040517f08c379a00000000000000000000000000000000000000000000000000000000081526004016109a5906111e1565b60405180910390fd5b565b6000601e620151806109c29190611201565b426109cd9190611272565b905090565b600060328210610a28576000600a6014846109ed91906110f5565b6109f79190611272565b9050671bc16d674ec8000081610a0d9190611201565b6753444835ec580000610a209190610f2e565b915050610aa5565b601e8210610a4057676f05b59d3b2000009050610aa5565b60148210610a58576753444835ec5800009050610aa5565b600a8210610a70576729a2241af62c00009050610aa5565b60058210610a88576714d1120d7b1600009050610aa5565b60018210610aa057670429d069189e00009050610aa5565b600090505b919050565b60006201518042610abb9190611272565b905090565b60008060009054906101000a900473ffffffffffffffffffffffffffffffffffffffff169050816000806101000a81548173ffffffffffffffffffffffffffffffffffffffff021916908373ffffffffffffffffffffffffffffffffffffffff1602179055508173ffffffffffffffffffffffffffffffffffffffff168173ffffffffffffffffffffffffffffffffffffffff167f8be0079c531659141344cd1fd0a4f28419497f9722a3daafe3b4186f6b6457e060405160405180910390a35050565b600033905090565b600080fd5b6000819050919050565b610ba481610b91565b8114610baf57600080fd5b50565b600081359050610bc181610b9b565b92915050565b600060208284031215610bdd57610bdc610b8c565b5b6000610beb84828501610bb2565b91505092915050565b600073ffffffffffffffffffffffffffffffffffffffff82169050919050565b6000610c1f82610bf4565b9050919050565b610c2f81610c14565b8114610c3a57600080fd5b50565b600081359050610c4c81610c26565b92915050565b600060208284031215610c6857610c67610b8c565b5b6000610c7684828501610c3d565b91505092915050565b610c8881610b91565b82525050565b6000608082019050610ca36000830187610c7f565b610cb06020830186610c7f565b610cbd6040830185610c7f565b610cca6060830184610c7f565b95945050505050565b6000602082019050610ce86000830184610c7f565b92915050565b610cf781610c14565b82525050565b6000602082019050610d126000830184610cee565b92915050565b600082825260208201905092915050565b7f496e73756666696369656e742062616c616e6365000000000000000000000000600082015250565b6000610d5f601483610d18565b9150610d6a82610d29565b602082019050919050565b60006020820190508181036000830152610d8e81610d52565b9050919050565b7f4f6e6c7920454f4120616c6c6f77656400000000000000000000000000000000600082015250565b6000610dcb601083610d18565b9150610dd682610d95565b602082019050919050565b60006020820190508181036000830152610dfa81610dbe565b9050919050565b7f4e6f207265776172647320617661696c61626c65000000000000000000000000600082015250565b6000610e37601483610d18565b9150610e4282610e01565b602082019050919050565b60006020820190508181036000830152610e6681610e2a565b9050919050565b7f52657761726420616c726561647920636c61696d65642074686973206d6f6e7460008201527f6800000000000000000000000000000000000000000000000000000000000000602082015250565b6000610ec9602183610d18565b9150610ed482610e6d565b604082019050919050565b60006020820190508181036000830152610ef881610ebc565b9050919050565b7f4e487b7100000000000000000000000000000000000000000000000000000000600052601160045260246000fd5b6000610f3982610b91565b9150610f4483610b91565b9250828201905080821115610f5c57610f5b610eff565b5b92915050565b7f4d6f6e74686c7920726577617264206361702065786365656465640000000000600082015250565b6000610f98601b83610d18565b9150610fa382610f62565b602082019050919050565b60006020820190508181036000830152610fc781610f8b565b9050919050565b7f496e73756666696369656e7420636f6e74726163742062616c616e6365000000600082015250565b6000611004601d83610d18565b915061100f82610fce565b602082019050919050565b6000602082019050818103600083015261103381610ff7565b9050919050565b600060408201905061104f6000830185610c7f565b61105c6020830184610c7f565b9392505050565b7f4f776e61626c653a206e6577206f776e657220697320746865207a65726f206160008201527f6464726573730000000000000000000000000000000000000000000000000000602082015250565b60006110bf602683610d18565b91506110ca82611063565b604082019050919050565b600060208201905081810360008301526110ee816110b2565b9050919050565b600061110082610b91565b915061110b83610b91565b925082820390508181111561112357611122610eff565b5b92915050565b7f4d61782074617073207265616368656420746f64617900000000000000000000600082015250565b600061115f601683610d18565b915061116a82611129565b602082019050919050565b6000602082019050818103600083015261118e81611152565b9050919050565b7f4f776e61626c653a2063616c6c6572206973206e6f7420746865206f776e6572600082015250565b60006111cb602083610d18565b91506111d682611195565b602082019050919050565b600060208201905081810360008301526111fa816111be565b9050919050565b600061120c82610b91565b915061121783610b91565b925082820261122581610b91565b9150828204841483151761123c5761123b610eff565b5b5092915050565b7f4e487b7100000000000000000000000000000000000000000000000000000000600052601260045260246000fd5b600061127d82610b91565b915061128883610b91565b92508261129857611297611243565b5b82820490509291505056fea2646970667358221220574fea8d19515e8cbd2be2bb33c47a2acfe2fd8c6ec21f93c9684d810340847064736f6c634300081c0033",
  "linkReferences": {},
  "deployedLinkReferences": {}
}