{
  "_format": "hh-sol-artifact-1",
  "contractName": "TapGem",
  "sourceName": "contracts/TapGem.sol",
  "abi": [
    {
      "inputs": [
        {
          "internalType": "address",
          "name": "_sttToken",
          "type": "address"
        }
      ],
      "stateMutability": "nonpayable",
      "type": "constructor"
    },
    {
      "anonymous": false,
      "inputs": [
        {
          "indexed": true,
          "internalType": "address",
          "name": "previousOwner",
          "type": "address"
        },
        {
          "indexed": true,
          "internalType": "address",
          "name": "newOwner",
          "type": "address"
        }
      ],
      "name": "OwnershipTransferred",
      "type": "event"
    },
    {
      "anonymous": false,
      "inputs": [
        {
          "indexed": true,
          "internalType": "address",
          "name": "user",
          "type": "address"
        },
        {
          "indexed": false,
          "internalType": "uint256",
          "name": "amount",
          "type": "uint256"
        },
        {
          "indexed": false,
          "internalType": "uint256",
          "name": "timestamp",
          "type": "uint256"
        }
      ],
      "name": "RewardClaimed",
      "type": "event"
    },
    {
      "anonymous": false,
      "inputs": [
        {
          "indexed": true,
          "internalType": "address",
          "name": "user",
          "type": "address"
        },
        {
          "indexed": false,
          "internalType": "uint256",
          "name": "timestamp",
          "type": "uint256"
        }
      ],
      "name": "Tapped",
      "type": "event"
    },
    {
      "inputs": [],
      "name": "MAX_TAPS_PER_DAY",
      "outputs": [
        {
          "internalType": "uint256",
          "name": "",
          "type": "uint256"
        }
      ],
      "stateMutability": "view",
      "type": "function"
    },
    {
      "inputs": [],
      "name": "MONTHLY_STT_CAP",
      "outputs": [
        {
          "internalType": "uint256",
          "name": "",
          "type": "uint256"
        }
      ],
      "stateMutability": "view",
      "type": "function"
    },
    {
      "inputs": [],
      "name": "SECONDS_IN_DAY",
      "outputs": [
        {
          "internalType": "uint256",
          "name": "",
          "type": "uint256"
        }
      ],
      "stateMutability": "view",
      "type": "function"
    },
    {
      "inputs": [],
      "name": "claimRewards",
      "outputs": [],
      "stateMutability": "nonpayable",
      "type": "function"
    },
    {
      "inputs": [
        {
          "internalType": "address",
          "name": "userAddress",
          "type": "address"
        }
      ],
      "name": "getUserStats",
      "outputs": [
        {
          "internalType": "uint256",
          "name": "tapsToday",
          "type": "uint256"
        },
        {
          "internalType": "uint256",
          "name": "currentStreak",
          "type": "uint256"
        },
        {
          "internalType": "uint256",
          "name": "points",
          "type": "uint256"
        },
        {
          "internalType": "uint256",
          "name": "totalSTTClaimed",
          "type": "uint256"
        }
      ],
      "stateMutability": "view",
      "type": "function"
    },
    {
      "inputs": [],
      "name": "owner",
      "outputs": [
        {
          "internalType": "address",
          "name": "",
          "type": "address"
        }
      ],
      "stateMutability": "view",
      "type": "function"
    },
    {
      "inputs": [],
      "name": "renounceOwnership",
      "outputs": [],
      "stateMutability": "nonpayable",
      "type": "function"
    },
    {
      "inputs": [],
      "name": "sttToken",
      "outputs": [
        {
          "internalType": "contract IERC20",
          "name": "",
          "type": "address"
        }
      ],
      "stateMutability": "view",
      "type": "function"
    },
    {
      "inputs": [],
      "name": "tap",
      "outputs": [],
      "stateMutability": "nonpayable",
      "type": "function"
    },
    {
      "inputs": [
        {
          "internalType": "address",
          "name": "newOwner",
          "type": "address"
        }
      ],
      "name": "transferOwnership",
      "outputs": [],
      "stateMutability": "nonpayable",
      "type": "function"
    },
    {
      "inputs": [
        {
          "internalType": "address",
          "name": "to",
          "type": "address"
        },
        {
          "internalType": "uint256",
          "name": "amount",
          "type": "uint256"
        }
      ],
      "name": "withdrawSTT",
      "outputs": [],
      "stateMutability": "nonpayable",
      "type": "function"
    }
  ],
  "bytecode": "0x60a060405234801561001057600080fd5b5060405161178738038061178783398181016040528101906100329190610226565b61004e6100436100f760201b60201c565b6100ff60201b60201c565b600073ffffffffffffffffffffffffffffffffffffffff168173ffffffffffffffffffffffffffffffffffffffff16036100bd576040517f08c379a00000000000000000000000000000000000000000000000000000000081526004016100b4906102b0565b60405180910390fd5b8073ffffffffffffffffffffffffffffffffffffffff1660808173ffffffffffffffffffffffffffffffffffffffff1681525050506102d0565b600033905090565b60008060009054906101000a900473ffffffffffffffffffffffffffffffffffffffff169050816000806101000a81548173ffffffffffffffffffffffffffffffffffffffff021916908373ffffffffffffffffffffffffffffffffffffffff1602179055508173ffffffffffffffffffffffffffffffffffffffff168173ffffffffffffffffffffffffffffffffffffffff167f8be0079c531659141344cd1fd0a4f28419497f9722a3daafe3b4186f6b6457e060405160405180910390a35050565b600080fd5b600073ffffffffffffffffffffffffffffffffffffffff82169050919050565b60006101f3826101c8565b9050919050565b610203816101e8565b811461020e57600080fd5b50565b600081519050610220816101fa565b92915050565b60006020828403121561023c5761023b6101c3565b5b600061024a84828501610211565b91505092915050565b600082825260208201905092915050565b7f496e76616c69642053545420746f6b656e206164647265737300000000000000600082015250565b600061029a601983610253565b91506102a582610264565b602082019050919050565b600060208201905081810360008301526102c98161028d565b9050919050565b60805161148e6102f960003960008181610380015281816105860152610687015261148e6000f3fe608060405234801561001057600080fd5b50600436106100a95760003560e01c8063715018a611610071578063715018a6146101435780637882bf7e1461014d5780637f7966301461016b5780638da5cb5b14610189578063f2fde38b146101a7578063fd221031146101c3576100a9565b8063372500ab146100ae5780634e43603a146100b85780634f4623d8146100eb57806360c379dd1461010757806361a52a3614610125575b600080fd5b6100b66101cd565b005b6100d260048036038101906100cd9190610c63565b6104ef565b6040516100e29493929190610ca9565b60405180910390f35b61010560048036038101906101009190610d1a565b61057c565b005b61010f610665565b60405161011c9190610d5a565b60405180910390f35b61012d61066a565b60405161013a9190610d5a565b60405180910390f35b61014b610671565b005b610155610685565b6040516101629190610dd4565b60405180910390f35b6101736106a9565b6040516101809190610d5a565b60405180910390f35b6101916106b5565b60405161019e9190610dfe565b60405180910390f35b6101c160048036038101906101bc9190610c63565b6106de565b005b6101cb610761565b005b3273ffffffffffffffffffffffffffffffffffffffff163373ffffffffffffffffffffffffffffffffffffffff161461023b576040517f08c379a000000000000000000000000000000000000000000000000000000000815260040161023290610e76565b60405180910390fd5b6000600160003373ffffffffffffffffffffffffffffffffffffffff1673ffffffffffffffffffffffffffffffffffffffff168152602001908152602001600020905060006102886109a6565b9050600061029983600201546109c8565b9050600081116102de576040517f08c379a00000000000000000000000000000000000000000000000000000000081526004016102d590610ee2565b60405180910390fd5b81836006015410610324576040517f08c379a000000000000000000000000000000000000000000000000000000000815260040161031b90610f74565b60405180910390fd5b67d02ab486cedc000081846005015461033d9190610fc3565b111561037e576040517f08c379a000000000000000000000000000000000000000000000000000000000815260040161037590611043565b60405180910390fd5b7f000000000000000000000000000000000000000000000000000000000000000073ffffffffffffffffffffffffffffffffffffffff1663a9059cbb33836040518363ffffffff1660e01b81526004016103d9929190611063565b6020604051808303816000875af11580156103f8573d6000803e3d6000fd5b505050506040513d601f19601f8201168201806040525081019061041c91906110c4565b61045b576040517f08c379a00000000000000000000000000000000000000000000000000000000081526004016104529061113d565b60405180910390fd5b8083600501600082825461046f9190610fc3565b92505081905550818360060181905550808360070160008282546104939190610fc3565b925050819055503373ffffffffffffffffffffffffffffffffffffffff167ff01da32686223933d8a18a391060918c7f11a3648639edd87ae013e2e273174382426040516104e292919061115d565b60405180910390a2505050565b6000806000806000600160008773ffffffffffffffffffffffffffffffffffffffff1673ffffffffffffffffffffffffffffffffffffffff16815260200190815260200160002090506000610542610aa0565b90508082600001541461055657600061055c565b81600101545b955081600201549450816004015493508160070154925050509193509193565b610584610ab6565b7f000000000000000000000000000000000000000000000000000000000000000073ffffffffffffffffffffffffffffffffffffffff1663a9059cbb83836040518363ffffffff1660e01b81526004016105df929190611063565b6020604051808303816000875af11580156105fe573d6000803e3d6000fd5b505050506040513d601f19601f8201168201806040525081019061062291906110c4565b610661576040517f08c379a0000000000000000000000000000000000000000000000000000000008152600401610658906111d2565b60405180910390fd5b5050565b601481565b6201518081565b610679610ab6565b6106836000610b34565b565b7f000000000000000000000000000000000000000000000000000000000000000081565b67d02ab486cedc000081565b60008060009054906101000a900473ffffffffffffffffffffffffffffffffffffffff16905090565b6106e6610ab6565b600073ffffffffffffffffffffffffffffffffffffffff168173ffffffffffffffffffffffffffffffffffffffff1603610755576040517f08c379a000000000000000000000000000000000000000000000000000000000815260040161074c90611264565b60405180910390fd5b61075e81610b34565b50565b3273ffffffffffffffffffffffffffffffffffffffff163373ffffffffffffffffffffffffffffffffffffffff16146107cf576040517f08c379a00000000000000000000000000000000000000000000000000000000081526004016107c690610e76565b60405180910390fd5b6000600160003373ffffffffffffffffffffffffffffffffffffffff1673ffffffffffffffffffffffffffffffffffffffff1681526020019081526020016000209050600061081c610aa0565b9050808260000154101561087a57600082600101819055506001816108419190611284565b82600001541480610861575060028161085a9190611284565b8260000154145b61087057600082600201819055505b8082600001819055505b60148260010154106108c1576040517f08c379a00000000000000000000000000000000000000000000000000000000081526004016108b89061132a565b60405180910390fd5b60018260010160008282546108d69190610fc3565b9250508190555042826003018190555060018260040160008282546108fb9190610fc3565b92505081905550601482600101540361092b57600a8260040160008282546109239190610fc3565b925050819055505b600182600101540361095457600182600201600082825461094c9190610fc3565b925050819055505b3373ffffffffffffffffffffffffffffffffffffffff167fdc127be18d76e446e5fc020307f45258733b6de74a0e446901771cbc729c19244260405161099a9190610d5a565b60405180910390a25050565b6000601e620151806109b8919061134a565b426109c391906113bb565b905090565b600060328210610a1e576000600a6014846109e39190611284565b6109ed91906113bb565b9050671bc16d674ec8000081610a03919061134a565b6753444835ec580000610a169190610fc3565b915050610a9b565b601e8210610a3657676f05b59d3b2000009050610a9b565b60148210610a4e576753444835ec5800009050610a9b565b600a8210610a66576729a2241af62c00009050610a9b565b60058210610a7e576714d1120d7b1600009050610a9b565b60018210610a9657670429d069189e00009050610a9b565b600090505b919050565b60006201518042610ab191906113bb565b905090565b610abe610bf8565b73ffffffffffffffffffffffffffffffffffffffff16610adc6106b5565b73ffffffffffffffffffffffffffffffffffffffff1614610b32576040517f08c379a0000000000000000000000000000000000000000000000000000000008152600401610b2990611438565b60405180910390fd5b565b60008060009054906101000a900473ffffffffffffffffffffffffffffffffffffffff169050816000806101000a81548173ffffffffffffffffffffffffffffffffffffffff021916908373ffffffffffffffffffffffffffffffffffffffff1602179055508173ffffffffffffffffffffffffffffffffffffffff168173ffffffffffffffffffffffffffffffffffffffff167f8be0079c531659141344cd1fd0a4f28419497f9722a3daafe3b4186f6b6457e060405160405180910390a35050565b600033905090565b600080fd5b600073ffffffffffffffffffffffffffffffffffffffff82169050919050565b6000610c3082610c05565b9050919050565b610c4081610c25565b8114610c4b57600080fd5b50565b600081359050610c5d81610c37565b92915050565b600060208284031215610c7957610c78610c00565b5b6000610c8784828501610c4e565b91505092915050565b6000819050919050565b610ca381610c90565b82525050565b6000608082019050610cbe6000830187610c9a565b610ccb6020830186610c9a565b610cd86040830185610c9a565b610ce56060830184610c9a565b95945050505050565b610cf781610c90565b8114610d0257600080fd5b50565b600081359050610d1481610cee565b92915050565b60008060408385031215610d3157610d30610c00565b5b6000610d3f85828601610c4e565b9250506020610d5085828601610d05565b9150509250929050565b6000602082019050610d6f6000830184610c9a565b92915050565b6000819050919050565b6000610d9a610d95610d9084610c05565b610d75565b610c05565b9050919050565b6000610dac82610d7f565b9050919050565b6000610dbe82610da1565b9050919050565b610dce81610db3565b82525050565b6000602082019050610de96000830184610dc5565b92915050565b610df881610c25565b82525050565b6000602082019050610e136000830184610def565b92915050565b600082825260208201905092915050565b7f54617047656d3a206f6e6c7920454f4120616c6c6f7765640000000000000000600082015250565b6000610e60601883610e19565b9150610e6b82610e2a565b602082019050919050565b60006020820190508181036000830152610e8f81610e53565b9050919050565b7f54617047656d3a206e6f207265776172647320617661696c61626c6500000000600082015250565b6000610ecc601c83610e19565b9150610ed782610e96565b602082019050919050565b60006020820190508181036000830152610efb81610ebf565b9050919050565b7f54617047656d3a207265776172647320616c726561647920636c61696d65642060008201527f74686973206d6f6e746800000000000000000000000000000000000000000000602082015250565b6000610f5e602a83610e19565b9150610f6982610f02565b604082019050919050565b60006020820190508181036000830152610f8d81610f51565b9050919050565b7f4e487b7100000000000000000000000000000000000000000000000000000000600052601160045260246000fd5b6000610fce82610c90565b9150610fd983610c90565b9250828201905080821115610ff157610ff0610f94565b5b92915050565b7f54617047656d3a206d6f6e74686c792063617020657863656564656400000000600082015250565b600061102d601c83610e19565b915061103882610ff7565b602082019050919050565b6000602082019050818103600083015261105c81611020565b9050919050565b60006040820190506110786000830185610def565b6110856020830184610c9a565b9392505050565b60008115159050919050565b6110a18161108c565b81146110ac57600080fd5b50565b6000815190506110be81611098565b92915050565b6000602082840312156110da576110d9610c00565b5b60006110e8848285016110af565b91505092915050565b7f54617047656d3a20535454207472616e73666572206661696c65640000000000600082015250565b6000611127601b83610e19565b9150611132826110f1565b602082019050919050565b600060208201905081810360008301526111568161111a565b9050919050565b60006040820190506111726000830185610c9a565b61117f6020830184610c9a565b9392505050565b7f54617047656d3a207769746864726177206661696c6564000000000000000000600082015250565b60006111bc601783610e19565b91506111c782611186565b602082019050919050565b600060208201905081810360008301526111eb816111af565b9050919050565b7f4f776e61626c653a206e6577206f776e657220697320746865207a65726f206160008201527f6464726573730000000000000000000000000000000000000000000000000000602082015250565b600061124e602683610e19565b9150611259826111f2565b604082019050919050565b6000602082019050818103600083015261127d81611241565b9050919050565b600061128f82610c90565b915061129a83610c90565b92508282039050818111156112b2576112b1610f94565b5b92915050565b7f54617047656d3a206d61782074617073207265616368656420666f7220746f6460008201527f6179000000000000000000000000000000000000000000000000000000000000602082015250565b6000611314602283610e19565b915061131f826112b8565b604082019050919050565b6000602082019050818103600083015261134381611307565b9050919050565b600061135582610c90565b915061136083610c90565b925082820261136e81610c90565b9150828204841483151761138557611384610f94565b5b5092915050565b7f4e487b7100000000000000000000000000000000000000000000000000000000600052601260045260246000fd5b60006113c682610c90565b91506113d183610c90565b9250826113e1576113e061138c565b5b828204905092915050565b7f4f776e61626c653a2063616c6c6572206973206e6f7420746865206f776e6572600082015250565b6000611422602083610e19565b915061142d826113ec565b602082019050919050565b6000602082019050818103600083015261145181611415565b905091905056fea26469706673582212202040db54a9f8f528a5901838f98aa2528c3c4bcfe8c6022b4b62106ee23f995164736f6c634300081c0033",
  "linkReferences": {},
  "deployedLinkReferences": {}
}