{
  "_format": "hh-sol-artifact-1",
  "contractName": "STTTokenVault",
  "sourceName": "contracts/STTToken.sol",
  "abi": [
    {
      "inputs": [
        {
          "internalType": "address",
          "name": "_sttToken",
          "type": "address"
        }
      ],
      "stateMutability": "nonpayable",
      "type": "constructor"
    },
    {
      "anonymous": false,
      "inputs": [
        {
          "indexed": true,
          "internalType": "address",
          "name": "previousOwner",
          "type": "address"
        },
        {
          "indexed": true,
          "internalType": "address",
          "name": "newOwner",
          "type": "address"
        }
      ],
      "name": "OwnershipTransferred",
      "type": "event"
    },
    {
      "inputs": [],
      "name": "availableSTT",
      "outputs": [
        {
          "internalType": "uint256",
          "name": "",
          "type": "uint256"
        }
      ],
      "stateMutability": "view",
      "type": "function"
    },
    {
      "inputs": [],
      "name": "owner",
      "outputs": [
        {
          "internalType": "address",
          "name": "",
          "type": "address"
        }
      ],
      "stateMutability": "view",
      "type": "function"
    },
    {
      "inputs": [],
      "name": "renounceOwnership",
      "outputs": [],
      "stateMutability": "nonpayable",
      "type": "function"
    },
    {
      "inputs": [],
      "name": "sttToken",
      "outputs": [
        {
          "internalType": "contract IERC20",
          "name": "",
          "type": "address"
        }
      ],
      "stateMutability": "view",
      "type": "function"
    },
    {
      "inputs": [
        {
          "internalType": "address",
          "name": "newOwner",
          "type": "address"
        }
      ],
      "name": "transferOwnership",
      "outputs": [],
      "stateMutability": "nonpayable",
      "type": "function"
    },
    {
      "inputs": [
        {
          "internalType": "address",
          "name": "to",
          "type": "address"
        },
        {
          "internalType": "uint256",
          "name": "amount",
          "type": "uint256"
        }
      ],
      "name": "transferTo",
      "outputs": [],
      "stateMutability": "nonpayable",
      "type": "function"
    },
    {
      "inputs": [
        {
          "internalType": "address",
          "name": "to",
          "type": "address"
        },
        {
          "internalType": "uint256",
          "name": "amount",
          "type": "uint256"
        }
      ],
      "name": "withdraw",
      "outputs": [],
      "stateMutability": "nonpayable",
      "type": "function"
    }
  ],
  "bytecode": "0x60a060405234801561001057600080fd5b50604051610eeb380380610eeb83398181016040528101906100329190610226565b61004e6100436100f760201b60201c565b6100ff60201b60201c565b600073ffffffffffffffffffffffffffffffffffffffff168173ffffffffffffffffffffffffffffffffffffffff16036100bd576040517f08c379a00000000000000000000000000000000000000000000000000000000081526004016100b4906102b0565b60405180910390fd5b8073ffffffffffffffffffffffffffffffffffffffff1660808173ffffffffffffffffffffffffffffffffffffffff1681525050506102d0565b600033905090565b60008060009054906101000a900473ffffffffffffffffffffffffffffffffffffffff169050816000806101000a81548173ffffffffffffffffffffffffffffffffffffffff021916908373ffffffffffffffffffffffffffffffffffffffff1602179055508173ffffffffffffffffffffffffffffffffffffffff168173ffffffffffffffffffffffffffffffffffffffff167f8be0079c531659141344cd1fd0a4f28419497f9722a3daafe3b4186f6b6457e060405160405180910390a35050565b600080fd5b600073ffffffffffffffffffffffffffffffffffffffff82169050919050565b60006101f3826101c8565b9050919050565b610203816101e8565b811461020e57600080fd5b50565b600081519050610220816101fa565b92915050565b60006020828403121561023c5761023b6101c3565b5b600061024a84828501610211565b91505092915050565b600082825260208201905092915050565b7f496e76616c69642053545420746f6b656e206164647265737300000000000000600082015250565b600061029a601983610253565b91506102a582610264565b602082019050919050565b600060208201905081810360008301526102c98161028d565b9050919050565b608051610be46103076000396000818161014501528181610220015281816103150152818161033b015261048e0152610be46000f3fe608060405234801561001057600080fd5b506004361061007d5760003560e01c80638ab6cc101161005b5780638ab6cc10146100c65780638da5cb5b146100e4578063f2fde38b14610102578063f3fef3a31461011e5761007d565b80632ccb1b3014610082578063715018a61461009e5780637882bf7e146100a8575b600080fd5b61009c60048036038101906100979190610750565b61013a565b005b6100a66102ff565b005b6100b0610313565b6040516100bd91906107ef565b60405180910390f35b6100ce610337565b6040516100db9190610819565b60405180910390f35b6100ec6103d8565b6040516100f99190610843565b60405180910390f35b61011c6004803603810190610117919061085e565b610401565b005b61013860048036038101906101339190610750565b610484565b005b61014261056d565b807f000000000000000000000000000000000000000000000000000000000000000073ffffffffffffffffffffffffffffffffffffffff166370a08231306040518263ffffffff1660e01b815260040161019c9190610843565b602060405180830381865afa1580156101b9573d6000803e3d6000fd5b505050506040513d601f19601f820116820180604052508101906101dd91906108a0565b101561021e576040517f08c379a00000000000000000000000000000000000000000000000000000000081526004016102159061092a565b60405180910390fd5b7f000000000000000000000000000000000000000000000000000000000000000073ffffffffffffffffffffffffffffffffffffffff1663a9059cbb83836040518363ffffffff1660e01b815260040161027992919061094a565b6020604051808303816000875af1158015610298573d6000803e3d6000fd5b505050506040513d601f19601f820116820180604052508101906102bc91906109ab565b6102fb576040517f08c379a00000000000000000000000000000000000000000000000000000000081526004016102f290610a24565b60405180910390fd5b5050565b61030761056d565b61031160006105eb565b565b7f000000000000000000000000000000000000000000000000000000000000000081565b60007f000000000000000000000000000000000000000000000000000000000000000073ffffffffffffffffffffffffffffffffffffffff166370a08231306040518263ffffffff1660e01b81526004016103929190610843565b602060405180830381865afa1580156103af573d6000803e3d6000fd5b505050506040513d601f19601f820116820180604052508101906103d391906108a0565b905090565b60008060009054906101000a900473ffffffffffffffffffffffffffffffffffffffff16905090565b61040961056d565b600073ffffffffffffffffffffffffffffffffffffffff168173ffffffffffffffffffffffffffffffffffffffff1603610478576040517f08c379a000000000000000000000000000000000000000000000000000000000815260040161046f90610ab6565b60405180910390fd5b610481816105eb565b50565b61048c61056d565b7f000000000000000000000000000000000000000000000000000000000000000073ffffffffffffffffffffffffffffffffffffffff1663a9059cbb83836040518363ffffffff1660e01b81526004016104e792919061094a565b6020604051808303816000875af1158015610506573d6000803e3d6000fd5b505050506040513d601f19601f8201168201806040525081019061052a91906109ab565b610569576040517f08c379a000000000000000000000000000000000000000000000000000000000815260040161056090610b22565b60405180910390fd5b5050565b6105756106af565b73ffffffffffffffffffffffffffffffffffffffff166105936103d8565b73ffffffffffffffffffffffffffffffffffffffff16146105e9576040517f08c379a00000000000000000000000000000000000000000000000000000000081526004016105e090610b8e565b60405180910390fd5b565b60008060009054906101000a900473ffffffffffffffffffffffffffffffffffffffff169050816000806101000a81548173ffffffffffffffffffffffffffffffffffffffff021916908373ffffffffffffffffffffffffffffffffffffffff1602179055508173ffffffffffffffffffffffffffffffffffffffff168173ffffffffffffffffffffffffffffffffffffffff167f8be0079c531659141344cd1fd0a4f28419497f9722a3daafe3b4186f6b6457e060405160405180910390a35050565b600033905090565b600080fd5b600073ffffffffffffffffffffffffffffffffffffffff82169050919050565b60006106e7826106bc565b9050919050565b6106f7816106dc565b811461070257600080fd5b50565b600081359050610714816106ee565b92915050565b6000819050919050565b61072d8161071a565b811461073857600080fd5b50565b60008135905061074a81610724565b92915050565b60008060408385031215610767576107666106b7565b5b600061077585828601610705565b92505060206107868582860161073b565b9150509250929050565b6000819050919050565b60006107b56107b06107ab846106bc565b610790565b6106bc565b9050919050565b60006107c78261079a565b9050919050565b60006107d9826107bc565b9050919050565b6107e9816107ce565b82525050565b600060208201905061080460008301846107e0565b92915050565b6108138161071a565b82525050565b600060208201905061082e600083018461080a565b92915050565b61083d816106dc565b82525050565b60006020820190506108586000830184610834565b92915050565b600060208284031215610874576108736106b7565b5b600061088284828501610705565b91505092915050565b60008151905061089a81610724565b92915050565b6000602082840312156108b6576108b56106b7565b5b60006108c48482850161088b565b91505092915050565b600082825260208201905092915050565b7f496e73756666696369656e74205354542062616c616e63650000000000000000600082015250565b60006109146018836108cd565b915061091f826108de565b602082019050919050565b6000602082019050818103600083015261094381610907565b9050919050565b600060408201905061095f6000830185610834565b61096c602083018461080a565b9392505050565b60008115159050919050565b61098881610973565b811461099357600080fd5b50565b6000815190506109a58161097f565b92915050565b6000602082840312156109c1576109c06106b7565b5b60006109cf84828501610996565b91505092915050565b7f535454207472616e73666572206661696c656400000000000000000000000000600082015250565b6000610a0e6013836108cd565b9150610a19826109d8565b602082019050919050565b60006020820190508181036000830152610a3d81610a01565b9050919050565b7f4f776e61626c653a206e6577206f776e657220697320746865207a65726f206160008201527f6464726573730000000000000000000000000000000000000000000000000000602082015250565b6000610aa06026836108cd565b9150610aab82610a44565b604082019050919050565b60006020820190508181036000830152610acf81610a93565b9050919050565b7f5769746864726177206661696c65640000000000000000000000000000000000600082015250565b6000610b0c600f836108cd565b9150610b1782610ad6565b602082019050919050565b60006020820190508181036000830152610b3b81610aff565b9050919050565b7f4f776e61626c653a2063616c6c6572206973206e6f7420746865206f776e6572600082015250565b6000610b786020836108cd565b9150610b8382610b42565b602082019050919050565b60006020820190508181036000830152610ba781610b6b565b905091905056fea2646970667358221220432dc6a4ffb5649fcf8e6c4ed174d708d02b515ff344f006921f84841bf2cce564736f6c634300081c0033",
  "linkReferences": {},
  "deployedLinkReferences": {}
}